:040000006F008068A5
:100004000000000000000000E2030000E403000020
:100014000000000086060000000000000000000050
:1000240086060000860600000000000000000000B4
:1000340086060000000000008606000000000000A4
:10004400860600008606000086060000860600007C
:10005400860600008606000086060000860600006C
:10006400860600008606000086060000EE160000E4
:10007400B216000086060000860600008606000010
:10008400860600008606000086060000860600003C
:10009400860600008606000086060000860600002C
:1000A400860600008606000086060000860600001C
:1000B4006E18000086060000860600008606000012
:1000C40086060000860600008606000086060000FC
:1000D4008606000086060000D01A00005A1B0000A5
:1000E40086060000860600008606000086060000DC
:1000F40086060000860600008606000086060000CC
:100104000000000086060000860600008606000047
:100114009E1D00008606000086060000860600007C
:10012400860600008606000086060000860600009B
:10013400860600008606000086060000860600008B
:10014400860600008606000086060000860600007B
:100154008606000086060000860600008A1E00004F
:10016400860600008606000086060000860600005B
:10017400860600008606000086060000860600004B
:10018400860600008606000086060000860600003B
:10019400860600008606000086060000860600002B
:1001A400000000000000000000000000000000004B
:0C01B4000000000000000000000000003F
:1001C000397101436EC619A0397141536AC866CAB4
:1001D00062CC5ECE19A0397101535AD056D252D496
:1001E0004ED64AD826DA22DC06DE3301614082820E
:1001F00041114AC026C222C406C68282B24D4101C4
:10020000024D924C224CB24B4101024B924A224A7F
:10021000B2494101024992442244B24041018280E4
:100220003D432A876373C3029377F700BDEFADE5C3
:10023000937606FF3D8ABA960CC34CC30CC74CC7D5
:100240004107E36BD7FE11E28280B306C3408A0602
:100250009702000096966780A6002307B700A306C2
:10026000B7002306B700A305B7002305B700A30412
:10027000B7002304B700A303B7002303B700A3020A
:10028000B7002302B700A301B7002301B700A30002
:10029000B7002300B700828093F5F50F9396850091
:1002A000D58D93960501D58D61B79396270097025A
:1002B000000096968682E78086FA9680C1171D8F89
:1002C0003E96E374C3F8A5B73367B500FD530D8BB5
:1002D00079E7B7877F7F9387F7F710419441B3722F
:1002E000F6003363F600BE92B3E262006395720CCF
:1002F0006318D6065041D441B372F6003363F6005A
:10030000BE92B3E262006396720A631BD604104584
:100310009445B372F6003363F600BE92B3E2620016
:10032000639F7208631ED6025045D445B372F6002F
:100330003363F600BE92B3E2620063987208631101
:10034000D60210499449B372F6003363F600BE92A8
:10035000B3E26200639172085105D105E30FD6F64E
:100360001317060193970601631CF7001357060144
:1003700093D706013305F7409375F50F91E9828015
:100380004183C1833305F7409375F50F91E1828076
:100390001377F70F93F7F70F3305F740828010219B
:1003A0009421050585056313D60075FA3305D640FB
:1003B000828011059105E314D6FE01458280210556
:1003C000A105E31ED6FC014582803105B105E31885
:1003D000D6FC014582804105C105E312D6FC0145EA
:1003E000828001A0B707EFBE37E700E093870708D8
:1003F0003CC701A0EFF2DFDF0945212D7164A92A76
:10040000EF00303013050420EF00B035B7070020AF
:1004100083A5070B373500001305056FEF1010603B
:10042000CD2CAA853735000013050570EF10105F3D
:100430003735000013050571EF10906F1305042088
:10044000EF10805DEF00103DEF10C03B130504205E
:10045000EF10301DEF10A035EF10E035F5BFB717E6
:1004600002409843B706FFF041111367170098C385
:10047000D84337060200758FD8C39843B706F7FEF6
:10048000FD16758F98C39843B706FCFFFD16758F50
:1004900098C3D843B70601FFFD16758FD8C398439C
:1004A000B70600ECFD16758F98C33707FF0098C795
:1004B00023A6070202C402C69843C166558F98C39B
:1004C000B716024005679C42F18F3EC6A2478507DA
:1004D0003EC4B24781E7A247E397E7FEB717024061
:1004E0009C431397E7006357070685473EC632478C
:1004F0008547631FF704B7170240D843B706C1FF0B
:10050000FD16D8C3D843D8C3D84313670740D8C310
:10051000D843758FD8C3D843B7062900558FD8C3A1
:100520009843B7060001558F98C398439316670008
:10053000E3DD06FED843B7160240719BD8C3D8430B
:1005400013672700D8C32147DC42B18BE39EE7FE47
:100550004101828002C661BFB7160240D842B70788
:1005600000201146318B9387070B6305C700214696
:100570006308C70237177A001307072098C3371795
:100580000240584311839376F70037070020130782
:1005900007003697142398433357D70098C38280B7
:1005A000D842D442416649833D8BF18E1306270021
:1005B00015CF3D47630FE6024147630FE60245470B
:1005C00081456313E6004146A1E237470240032715
:1005D0000780418B0DC737177A00130707203306B2
:1005E000C70290C3C9DD9843058349BF8145494689
:1005F000E1BF85453546C9BF81453D46F1B737174F
:100600003D0013070790E1BF371502405855931678
:10061000F700585563DF060411833D8B93061700DE
:1006200037177A00130707203357D70298C354555A
:10063000A182BD8A8DE295463307D702058398C310
:1006400037170240585794433D8B050733D7E602CE
:1006500098C3984369B705456394A600E546E9BF8A
:100660003D456396A600D1463387E602C9BF890699
:10067000E5BF3D8B9306170037177A001307072055
:100680003357D702F1B701A097010020938181224F
:100690001781002013010197173500001305451538
:1006A00097050020938505961386818163FAC5001E
:1006B0008322050023A0550011059105E3EAC5FE3C
:1006C00013858181938581506377B50023200500D0
:1006D0001105E36DB5FEFD42739002BCAD4273900F
:1006E0004280B762000093828208739002309702C2
:1006F00000009382629193E2320073905230EFF0E7
:100700001FD697020000938222CF73901234730099
:100710002030B7F7FF1F03A5477082801C41416757
:100720007917F98F1CC123200500232205002324FB
:100730000500B707024023260500138787006317CB
:10074000E500D8431367F700D8C382801387C70139
:100750006316E500D8431367070FFDB71387070338
:100760006318E500D8438566938606F0558FE9BF88
:10077000138747046315E500D843BD66C5BF1387DB
:1007800087056316E500D843B7060F00C5B7138782
:10079000C7066316E500D843B706F000C1BF13874C
:1007A00007086316E500D843B706000FC1B71387E3
:1007B00087406319E50003A747401367F70023A2AA
:1007C000E74082801387C7416317E50003A74740CE
:1007D0001367070FEDB793870743631BF500B70750
:1007E000024003A747408566938606F0558FC1BF38
:1007F000B7070240138747446316E50003A7474045
:10080000BD66EDB7138787456317E50003A747402B
:10081000B7060F00E1BF1387C7466317E50003A7BC
:100820004740B706F000D9B7138707486317E500BC
:1008300003A74740B706000F55BF13870749631941
:10084000E50003A7474D1367F70023AAE74C828012
:100850001387074A6317E50003A7474D1367070F80
:10086000EDB71387074B6319E50003A7474D85666E
:10087000938606F0558FD1BF1387074CE319E5FC2B
:1008800003A7474DBD66FDB71C4161773D079451F5
:100890007D8F9C45D58F9449D58FD449D58F944D64
:1008A000D58FD44DD58FD451D58F9455D58FD98F21
:1008B0001CC1DC455CC19C411CC5DC415CC582801F
:1008C0001C4189C593E717001CC1828041677917D5
:1008D000F98FDDBF48414205418182809317350081
:1008E00063DA0700B707024083A707407D8D3335E1
:1008F000A00082809317250063D70700B707024046
:1009000083A7074DE5B7B70702409C43C5B79317C8
:10091000350063D70700B707024023A2A7408280B3
:100920009317250063D70700B707024023AAA74CF7
:100930008280B7070240C8C38280EFF27F8B793F85
:10094000D1B8EFF2FF8AE137F1B09C4513F7070108
:1009500013F8F70001C7D8413368E8008E2113F778
:10096000F50F39C318418146854E3D4F930F8002E4
:1009700093028004214E3396DE00B3F8C500631164
:1009800016039398260033131F011343F3FF3377A5
:10099000E300B318180133E7E800639FF70550C977
:1009A0008506E39AC6FD18C11307F00F6375B704F7
:1009B00054412146854E3D4F930F8002930280049F
:1009C000414EB398CE0033F715016392E802131736
:1009D000260001173313EF001343F3FFB376D30060
:1009E0003317E800D98E639DF701232A1501050608
:1009F000E319C6FD54C18280E39457FA10C94DB77C
:100A0000E39757FE23281501DDB70CC982804CC936
:100A1000828023ACA180828003A781818947102135
:100A20006311F70214318D4763EDD7003C219A061C
:100A300037E700E09607D58F93F7F70F329723003B
:100A4000F74054410547935756003317C70089CAEA
:100A5000938707048A07B7E600E0B69798C38280B9
:100A600093870706B7E600E08A07B69798C30F108A
:100A700000008280371702405C439146B18B63854A
:100A8000D700A1466382D706B7177A00938707205D
:100A90001CC1371602405C423707002013070701CC
:100AA0009183BD8BBA9794231C41B3D7D7005CC107
:100AB0005442A1829D8ABA969422B3D6D70014C517
:100AC0005442AD829D8A36971823B3D7E7005CC5A0
:100AD000584239839376370013874180369718231D
:100AE000B3D7E7021CC982805C435843C166C983FF
:100AF000758FB7F6FF1F83A6C670BD8B8907139647
:100B0000160163480600C54601466392D702C947ED
:100B100039A88946638FD702BD46638ED702C14686
:100B2000638ED702C54601466393D700C1471DEFC8
:100B30003747024003270780418B05C737177A00E4
:100B400013070720B307F7021CC121D61C41858378
:100B500081B701466DBF0546B547D1BF0146BD47C8
:100B6000F9B737173D0013070790E9BFB7150240E3
:100B7000D8559316F700D85563DF060411833D8BD3
:100B80009306170037177A00130707203357D70249
:100B900018C1D455A182BD8A8DE295463307D7028C
:100BA000058318C137170240585714413D8B05077C
:100BB00033D7E60218C1184171B785456394B60072
:100BC000E546E9BFBD456396B600D1463387E602E8
:100BD000C9BF8906E5BF3D8B9306170037177A001A
:100BE000130707203357D702F1B799C537170240CB
:100BF0005C4B5D8D48CB8280B7170240D84B1345C4
:100C0000F5FF798DC8CB828099C5371702401C4FFC
:100C10005D8D08CF8280B7170240984F1345F5FFCE
:100C2000798D88CF828099C5371702405C4F5D8DE2
:100C300048CF8280B7170240D84F1345F5FF798D12
:100C4000C8CF82801A218D6793870704B6217D8FD4
:100C50009E21D58FD621D58FF621D58F9625D58F7C
:100C6000B625D58FD625D58FF625D58FD98F1EA140
:100C70005A2DFD779387F77FF98F5EAD9E291EA9C8
:100C800082801E2189C593E707041EA18280C207C6
:100C9000C18393F7F7FBC207C183C5BF4EA582800E
:100CA0004A2582800A256D8D3335A00082801E2161
:100CB00037370140930607C0C207C1836300D504DC
:100CC000B7060040630CD502938606406308D50240
:100CD000B7160040138606806302C502938606C0DD
:100CE000630ED50013070740630AE500375701403C
:100CF000930607C06304D5006316E500BA2193F795
:100D0000F7F8D98F37170040630CE5001307074049
:100D10006308E50093F7F7CFFA21C207C183D98FA3
:100D20001EA1DE215EB59E211EB5B7370140138797
:100D300007C0630EE50093870740630AF500B757C5
:100D40000140138707C06304E5006314F5009C2588
:100D50001EB985475EA982801E2189C593E71700C9
:100D60001EA18280C207C183F99BC207C183CDBF88
:100D70005E2501C6DD8D4EA5828093C5F5FFFD8DF4
:100D8000DDBF1E25C207C183E19BC207C1831EA52B
:100D900082800A296D8D3335A000828093C5F5FFCE
:100DA000C205C1810EA9828093C5F5FFC205C1812C
:100DB0000EA98280EFF2CFC31629F577FD17F58FC4
:100DC000F621DA257971D58F1EA95625FD779387EF
:100DD000379FF58FD6212A842EC6D58F9625D58F9D
:100DE000B625D58F5EA55E29C207C18393F7F7CFDD
:100DF000D98F5EA96808BD39B7470140938707803E
:100E0000B245631EF402A2576547B387E7029841D3
:100E1000930640060A07B3D7E70233D7D702B3F7E2
:100E2000D7021207920793872703B3D7D702BD8B48
:100E3000D98FC207C1831EA445616FF0AFBD925721
:100E4000E1B791C55E250967D98F5EA582805A25D5
:100E5000F977FD17F98FD5BF13F7F50F8547158380
:100E6000B395B7006319F7009307C500984301CE07
:100E7000D98D8CC38280894693074501E318D7FE3C
:100E800093070501E5B793C5F5FFF98DDDB75E2939
:100E900001C6DD8D4EA9828093C5F5FFFD8DDDBFB6
:100EA00093F5F51F4EA182800A216D8D3335A00088
:100EB000828013F7F50F85461583B397B60063114B
:100EC000D7025A25F98F1A2101454207418381CB68
:100ED0000545A181B315B5006D8F3335E0008280E3
:100EE00089466314D7001A29F1BF5A29E1BFA181AD
:100EF0008547B397B70093C7F7FFC207C1831EA109
:100F00008280B707002083A7070B37177A001307E3
:100F10000720B3D7E70293F7F70F238FF18013076A
:100F2000803EB387E702239EF1808280B7F700E01E
:100F3000D8438146799BD8C303C7E1813306A70212
:100F400090CBD4CB98431367070198C3984313679A
:100F5000170298C3D843058B75DF9843799B98C3D4
:100F60008280EFF2EFA82A841165011185451105F1
:100F70006139930700207C82371501408D473EC4BC
:100F80004C00E147130505803EC6C13222C83744F4
:100F90000140B70708000C08130504803ECC02CAC4
:100FA000231E0100013D854513050480593D05615F
:100FB0006FF04FA6EFF22FA2B7440140AE893289FD
:100FC000014493840480634524014A856FF0EFA3B4
:100FD000930500042685C93D65DDB38789008385B7
:100FE000070026850504C205C1815D3DE9BF138761
:100FF00081801C43938681503E95636BD500B786F4
:1010000000209386068063E5A60008C33E858280A3
:10101000FD57EDBFEFF2CF9D056501118545310507
:10102000E536371401409307000A7C80E1448D4780
:101030008A85130504803EC226C4013A9307000442
:101040007C808A859147130504803EC4FD38C147E2
:1010500041498A85130504807C804AC4FD30854758
:101060008A85130504C07C804AC4C530B7070401D3
:101070003EC6B70700023ECA6C009D4737350140A7
:10108000FC8626CC02C87D3E854537350140D53EDD
:10109000C14513050480953A05616FF0AF97EFF2F3
:1010A0002F95AA84EF00A0752A8437150140C14509
:1010B00013050580A93A9395140093F5E50793E588
:1010C000050837350140D93E9304843E89453735BC
:1010D0000140C93E01E9EF008072E36995FEEF002F
:1010E000007205449304843E8545373501405D3EDA
:1010F00001E9EF00C070E36995FEEF004070054420
:1011000037350140713E814537350140413E9304FA
:10111000843E894537350140713601E9EF00206E84
:10112000E36995FEEF00A06D05441304843E8545F8
:1011300037350140853E19E5EF00606CE36985FEB7
:10114000EF00E06B37350140A13E2A84371501409E
:10115000C14513050580EFF05F8B1375F40F6FF039
:101160006F8BEFF2EF88AA842E89EF0040692A8402
:1011700037150140C14513050580EFF05F89939550
:10118000140093F5E50737350140093E9304843E8A
:10119000894537350140393601E9EF004066E3699A
:1011A00095FEEF00C06505449304843E85453735C0
:1011B0000140CD3C01E9EF008064E36995FEEF005A
:1011C0000064054437350140E13CCA8537350140AC
:1011D000F1349304843E894537350140E13401E917
:1011E000EF00E061E36995FEEF00606105441304E0
:1011F000843E854537350140753419E5EF002060A0
:10120000E36985FEEF00A05F37350140513C37159B
:101210000140C14513050580EFF02FFF6FE09FFFF0
:10122000EFE21FFDEF00A05DB714014085452A8461
:10123000138504C0EFF06FFD0545CD398545138555
:1012400004C0EFF0CFFC0545D5318545138504C0BA
:10125000EFF0AFFB0545D939BD45054519371304F6
:10126000843E05452D3D418909C5512BE36B85FE23
:101270007923054565399305D0034545DD35F945A5
:101280001305D002F93D81451305C002D93D9305F0
:10129000D0081305A002F1359305E0031305B00251
:1012A000C9359305000455456D3D130560026FE097
:1012B0007FF6EFE2FFF341112A842EC6CD33B2450B
:1012C000C98D93F5F50F2285693D41016FE09FF4CB
:1012D000EFE21FF241112A842EC6D133B24593C5E5
:1012E000F5FFE98D93F5F50F2285A53D41016FE0EE
:1012F0007FF2EFE27FEDB147AA84AE8B328BB689E5
:101300003A8A6301F50EB9476303F50E01490144BA
:10131000936504080945B1359305000811454D3F13
:10132000814505453D3D9305000829455937814ACA
:1013300063E26A0DA68505452D35B1476396F40035
:10134000930500083545B5371145913B930AC05DBB
:10135000136919001145A133FD1A2A8B63850A0010
:10136000B3772501E5DB9305000835459537638A9A
:101370000A0819452D336D8949E5337464010588E0
:101380001309600219C01309C0FCB1476392F40449
:1013900029453133AA84314519331D899397340087
:1013A00009C59387F4FF8E07AA972320FA00054406
:1013B00099C4C94713F4F40F63F397004944814477
:1013C0002545F139B387990088A38504E3EA84FEB3
:1013D000930500083145F13D8145054559334A855E
:1013E0006FE01FE2130900031304700715B74149AA
:1013F000494439BFB3875B018C232545850A953362
:1014000005BF1309B0FBE9B7EFE29FDE5145413953
:101410000D8901E58D455145693D6FE0BFDFEFE284
:101420003FDD8D4551456D356FE0DFDEEFE25FDC7E
:101430002A84AE84154591453289593D814505453B
:101440000D33930500082945AD35A294631B940222
:101450008D45054539331304F00F7D14154513747C
:10146000F40F353919C011896DD9130520020539DA
:101470002300A900130510021D31A300A9006FE08D
:101480007FD90C2025450504E939C9B7EFE25FD6BD
:101490000111930700051306E100680089457C8669
:1014A0007137740038001146B685314599351305FA
:1014B000600205616FE01FD6EFE29FD30111AA849D
:1014C0002E842145A14529359D45354559398D4500
:1014D0005145C533740038000546B685314544860C
:1014E000093D93076002631DF5002247C147631958
:1014F000F7001C861CA09C861CB005616FE09FD184
:101500001305B0FBDDBFEFE2BFCE0111A145AA84F8
:1015100021457D3B81453545A93193050008394575
:10152000453B740089679387370938000946B685BB
:1015300031457C867D3B930760022A846315F50262
:101540008147014711467400BE969422B385F4008A
:10155000850794A1358FE398C7FE83470101638413
:10156000E7001304B0FB9305000839459933228541
:1015700005616FE03FCAEFE21FC62A899384418468
:101580000144130A450193090004A6854A85EFE04A
:10159000BFD301ED938544015285EFE0FFD211E501
:1015A0001315840161856FE05FC60504DD04E31E49
:1015B00034FD7D55CDBFEFE21FC293874184814446
:1015C0001384418413070004F42B81CA8504DD07CA
:1015D000E39CE4FE7D556FE05FC35D4933892403DE
:1015E000AA8951468145B30724013E855109EFE0A0
:1015F0003FC34A9423000400A30004005146CE8553
:10160000EF00F01E03C7490118A003C7590118B025
:10161000054778A913958401618575BFAA9581470F
:101620006314B5003E85828005050347F5FFD98F19
:10163000A207FDB7EFE2DFBB01115D46814528003F
:10164000EFE01FBE6C0813052005BD35930760024F
:101650006308F500F136E133453B05616FE09FBB60
:101660002A8428004D35E31A85FE28002937FD57C6
:10167000AA84630DF5025D44B30785021384418497
:1016800091453E942285593F543850282A87373552
:101690000000A68513058572EF005038C53B37352D
:1016A000000013058574EF00B04845BF28002137BE
:1016B000F5B741111305000222C6EFF00FA805C5CA
:1016C00013050002EFF0EFA73704002037050240B2
:1016D000854713040402814571051CA0EFF04F9E5D
:1016E0001C4891C382973244410173002030094560
:1016F000EFF0AFA405C10945EFF0AFA4B707002094
:10170000370502409387070205478145210598B3B5
:10171000EFF00F9B73002030EFE29FAD2A8423226D
:1017200005002320050041110CC82E852EC6EF00B0
:10173000700B324608C48145EFE09FAE23260400BB
:1017400041016FE03FAD58451C492E966314F702E6
:101750007D55828014411C45850503C7F5FFB6976A
:1017600098A31C4118498507B3F7E7021CC15C45E3
:1017700085075CC5E390C5FE014582805C452E96D9
:101780009DE37D55828058411C458505BA979C2371
:10179000A38FF5FE5C4118498507B3F7E7025CC1EA
:1017A0005C45FD175CC5E390C5FE01458280094795
:1017B00023A0E1828280EFE21FA2912093878182A1
:1017C0003704002088C323A20700130444030149FF
:1017D0009384818283A701826364F9006FE0FFA292
:1017E00058401C44BA97D84001E798406366F70018
:1017F0001C4082979C405CC005093104E1BF03A5F1
:1018000001838280EFE2DF9E011185450545EFF0FF
:101810008FC137050040EFF0CFD69307F0083ECADE
:101820004C089307703E370500403ECC230E010064
:10183000EFF0EFC7854537050040EFF0EFD60546DE
:10184000854537050040EFF0AFD285473EC86800B8
:101850009307C0027C8623070100EFF0EF9B8545CC
:1018600037050040EFF04FCF05616FE0BF9A854527
:1018700037050040EFF0EFD185476311F50285454C
:1018800037050040EFF04FD2854537050040EFF0B7
:10189000EFD0938701839843050798C373002030E6
:1018A000EFE27F9379712A8B8545054502CA02CC08
:1018B00002CE02D002D202D402D6EFF00FB3854599
:1018C00037050200EFF02FB685451145EFF0CFB395
:1018D000B704024013850408EFE05FE4938701E357
:1018E00037440040138781FCD8C3930A44404147E2
:1018F000130A0010930900080D69938501E313850D
:10190000040823A0570198C723A6470123AA37013B
:1019100023A2270323A8070023AC070023AE070058
:1019200023A0070223A40702EFE01FF61385C406D5
:10193000EFE0DFDE938741E0138781EC1385C40677
:10194000938541E0D8C323A0570123A6470123AACA
:10195000370123A2270323A4070023A8070023ACF1
:10196000070023AE070023A0070223A40702EFE02D
:10197000BFF19147FC82371901408D473ECC4C089E
:10198000E147130509803ECEEFE03FFCA147FC8212
:101990004C089147130509803ECEEFE01FFBB707C7
:1019A0000C000C10130504403ED45AD002D223166A
:1019B0000102EFF02FC00546130504409305404295
:1019C000EFF08FC9854513050440EFF08FC79307EB
:1019D00060337C86680085473EC823070100EFF02E
:1019E000AF83138504088545EFE09FED1385C4069A
:1019F0008545EFE0FFEC1305044005469305000420
:101A0000EFF0EFC805469305000813050440EFF01A
:101A10000FC845616FE06FFFEFE28FFD5135930511
:101A20000010138541EBCD396FE0CFFEEFE24FFCA4
:101A30002A84AE8437050002EFE05FEA65DD268682
:101A4000A285138981FC138581FC5523370402404C
:101A500013050408EFE09FCC938701E31305040806
:101A6000938501E323A22701C4C7EFE0FFE1854589
:101A700013050408EFE0DFE46FE0CFF9317122CD08
:101A80003744004026CB06CFAA842ED332D536D792
:101A90003AD93EDB42DD46DF1304044093050008DB
:101AA0002285EFF06FC07DD954112686930500087A
:101AB000080836C6EF00F0110808EF00B00A937569
:101AC000F50F0808A537FA406A44DA442961828094
:101AD000411122C63744004093054042130504409B
:101AE00026C4EFF00FBD85476314F50613050440C7
:101AF00093054042EFF0AFBF035704408357444083
:101B00003704024081451305C406938451839CA089
:101B1000EFE01FDB1305C406EFE0DFDB3306A04078
:101B20001376F60F9307001090A03CD8938581ECB4
:101B3000138541EBEFF03FC11304C40685452285B0
:101B4000EFE01FD89387818398231367170098A32A
:101B50003244A244410173002030411122C637545F
:101B600000409305404213050480EFF08FB4854791
:101B70006312F5061305048093054042EFF02FB77A
:101B8000035704808357448037040240814513057E
:101B90000403EFE0FFD213050403EFE0BFD33306E5
:101BA000A0401376F60F238BC182930700105CD8F8
:101BB0009385C10D1385810CEFF0FFB81304040366
:101BC00085452285EFE0DFCF9387918398231367C4
:101BD000170098A33244410173002030EFE2AFDFD9
:101BE00079712A8B8545094502CA02CC02CE02D002
:101BF00002D202D402D6EFE05FFF85453705080028
:101C0000EFF06F8285454145EFF00F80B704024049
:101C100013858445EFE09FB0938781E837540040F7
:101C20001387012FD8C3930A44C04147130A0010F9
:101C3000930900080D69938581E81385844523A0E5
:101C4000570198C723A6470123AA370123A22703D8
:101C500023A8070023AC070023AE070023A0070238
:101C600023A40702EFE05FC213850443EFE01FAB3C
:101C70009387C1E51387011F138504439385C1E54D
:101C8000D8C323A0570123A6470123AA370123A2C3
:101C9000270323A4070023A8070023AC070023AED3
:101CA000070023A0070223A40702EFE0FFBD93076C
:101CB0000040FC828D473ECC4C08E147371501407F
:101CC0003ECEEFE09FC8856793870780FC824C0873
:101CD0009147371501403ECEEFE03FC7B7070C00F4
:101CE0000C10130504C03ED45AD002D223160102B0
:101CF000EFF04F8C0546130504C093054042EFF00A
:101D0000AF958545130504C0EFF0AF9393074034BA
:101D10007C86680085473EC823070100EFE0DFCFDF
:101D2000138584458545EFE0BFB913850443854598
:101D3000EFE01FB9130504C0054693050004EFF05A
:101D40000F95054693050008130504C0EFF02F9486
:101D500045616FE08FCBEFE2AFC92A84AE843705CF
:101D60000210EFE0BFB765DD2686A2851385012F3F
:101D7000BD2C3704024013058445EFE03F9A93875A
:101D800081E813058445938581E8C4C7EFE0DFAFA0
:101D9000854513058445EFE0BFB26FE0AFC7411141
:101DA00022C63754004093054042130504C0EFF0AB
:101DB0004F9085476313F506130504C09305404211
:101DC000EFF0EF92035704C0835744C0370402403A
:101DD000814513050443EFE0BFAE13050443EFE074
:101DE0007FAF3306A0401376F60FA38BC182930713
:101DF0000010232AF4429385011F1385C11DEFF0C3
:101E00009F941304044385452285EFE07FAB9387BD
:101E1000A18398231367170098A3324441017300EC
:101E20002030EFE2EFBCEFF07FDB9305001013856D
:101E3000C11DEFF07F8E6FE0EFBD317122CD3754C1
:101E4000004026CB06CFAA842ED332D536D73AD936
:101E50003EDB42DD46DF130404C093050008228503
:101E6000EFF08F847DD95411268693050008080869
:101E700036C685230808FD219375F50F0808E13D56
:101E8000FA406A44DA4429618280411122C637242B
:101E900000409305404213050480EFF08F81854791
:101EA0006313F5061305048093054042EFF02F8479
:101EB000035704808357448037040240814513054B
:101EC0000448EFE0FF9F13050448EFE0BFA033068E
:101ED000A0401376F60F238AC182930700102322B5
:101EE000F448938541401385013FEFF0DF851304EB
:101EF000044885452285EFE0BF9C9387B1839823F2
:101F00001367170098A33244410173002030EFE2B9
:101F10002FAE93878183982311719376170085CA1A
:101F2000799B1306001081450A8598A3EFE04FAF17
:101F3000938741EBD0478A85138541EBEFF01F84EF
:101F4000373500008A851305C574EFF03FB39387DA
:101F500091839823937617008DC2799B1306001006
:101F600081450A8598A3EFE0AFAB9387810CD047FA
:101F70008A851385810CEFF07F809387A183982356
:101F8000937617009DC6799B1306001081450A853C
:101F900098A3EFE0EFA89387C11DD0478A851385EA
:101FA000C11DEFF0AFFD373500008A851305C574FC
:101FB00069359387B1839823937617008DC2799BF7
:101FC0001306001081450A8598A3EFE06FA593875B
:101FD000013FD0478A851385013FEFF02FFA116149
:101FE0006FE04FA39387C180AA858843B1AAB3C786
:101FF000A5008D8B3307C50081E78D4763EDC700D2
:10200000AA87637EE508942185078505A38FD7FEFF
:10201000E3EBE7FE828093763500AA8789CA942194
:1020200085078505A38FD7FE93F63700C5BF937646
:10203000C7FF138606FE63F0C70683A3050083A2CD
:10204000450083AF850003AFC50083AE050103AE35
:10205000450103A3850183A8C5019385450223A0FB
:10206000770003A8C5FF23A2570023A4F70123A6E6
:10207000E70123A8D70123AAC70123AC670023AE39
:1020800017019387470223AE07FF75B79041910769
:10209000910523AEC7FEE3EBD7FEE3E6E7F68280C9
:1020A000DDC183A7C5FF411122C406C626C2138421
:1020B000C5FF63D307003E94AA84EF0050199387AD
:1020C000C1839C4381EF2322040023AE81822244FA
:1020D000B2402685924441016F009017637EF40060
:1020E00014403307D4006396E7009843DC433697E7
:1020F00018C05CC0D9BFBA87D84319C3E37DE4FEDA
:1021000094433386D700631F86001040B29694C371
:102110003386D700E31DC7FA10435843B29694C3E1
:10212000D8C375B76375C400B1479CC04DB71040A4
:10213000B306C4006316D70014435843B29614C0C4
:1021400058C0C0C369B78280011126CA9384350084
:10215000F19806CE22CC4AC84EC6A104B14763F31B
:10216000F404B14463E2B4042A89EF00500E93876B
:10217000C18398433A8439E0938701849C4391E773
:1021800081454A855D2A23A0A184A6854A857522BA
:10219000FD5963193507B1472320F9004A85EF003F
:1021A000300B29A0E3D004FCB1471CC10145F2402B
:1021B0006244D2444249B249056182801C40858F05
:1021C00063CF0702AD4663F6F6001CC03E9404C020
:1021D00031A05C406313870223AEF1824A85EF0091
:1021E00030071305B4009307440061993307F540A5
:1021F0005DDF3A94898F1CC05DBF5CC3C5B7228781
:10220000404095BF130435007198E30285FCB30587
:10221000A4404A851D22E31C35FBB5BF39713EDA67
:102220002ED232D436D63AD842DC46DE9387C180ED
:1022300022CC804326CA06CEAA8409C41C4C99E34A
:1022400022856D230C4454102686228536C6EF0065
:10225000D03BF2406244D24421618280011126CAFF
:102260004AC806CE22CC4EC652C4AA842E8901C5C5
:102270001C4D91E3A52B9C4C804499E32685BD23FE
:10228000971700009387074F631BF402C0405E243A
:10229000A18BB1C71C48A1C7FD59294A1C448345DD
:1022A0000900FD17B1E91CC463DD07062286A945B4
:1022B0002685052AFD576308F502294535A097179D
:1022C00000009387274D6314F4008044C9B7971723
:1022D000000093872748E31CF4FAC0444DBFA28551
:1022E0002685752A55D97D55F2406244D24442492B
:1022F000B249224A056182801CC4050963D70700E0
:10230000184C63CAE700638845011C401387170017
:1023100018C08CA361B722862685E120E31035F929
:10232000D9B71C401387170018C0294798A371B765
:102330009387C180AA85884315B7411122C42A8496
:102340002E8523A2015006C6EFE07FCAFD57631712
:10235000F500938741509C4391C31CC0B240224476
:1023600041018280AA87850703C7F7FF6DFF338588
:10237000A7407D1582801971A2DC86DEA6DA328440
:10238000635B06009307B0081CC17D55F650665488
:10239000D654096182803686930680202EC42ECCC6
:1023A000F482814519C09305F4FFFD572EC82ECE47
:1023B000BA862C00FC83AA84EF00E077FD576355B2
:1023C000F5009307B0089CC071D0A2472380070096
:1023D00075BF9387C1803687B2862E86AA858843CB
:1023E00059BF011122CC26CA4AC806CE4EC6AA84BD
:1023F0002E89328401C51C4D91E3CD2E9717000024
:10240000938747376317F406C0401C4C1CC45E24F6
:10241000A18BC1C31C48B5CF1C4808409379F90F64
:102420001379F90F1D8D5C486346F500A28526855A
:10243000792C25E51C440505FD171CC41C40138799
:10244000170018C0238037015C486388A7005E240A
:10245000858B81CBA9476316F900A2852685852C3B
:102460000DEDF24062444A85D2444249B2490561C9
:102470008280971700009387E7316314F40080444B
:1024800069B7971700009387E72CE310F4F8C0446E
:10249000ADBFA2852685212041D17D59D9B74111F3
:1024A0009387C18026C2844322C44AC006C62A89B3
:1024B0002E8489C49C4C99E326850D2E9717000025
:1024C0009387472B631BF402C0400317C400931784
:1024D0000701C18393F68700B5EA93F6070195EEED
:1024E000A5472320F900136707045AA47D55B2407D
:1024F0002244924402494101828097170000938749
:1025000067296314F4008044C9B7971700009387C4
:102510006724E31CF4FAC0444DBF918B85C74C5827
:1025200091C9930744046385F5004A85EFF05FB7CE
:10253000232A04025E242322040093F7B7FD5EA43D
:102540001C481CC05E2493E787005EA41C4899EBDE
:102550005E241307002093F707286385E700A28510
:102560004A85A1295E2413F717001DC35C48232464
:102570000400B307F0401CCC1C480145ADFB831799
:10258000C40013F7070825D793E707045EA4B9BF73
:10259000898B014791E3584818C4F9BFDE25011122
:1025A00022CC26CA06CE4AC84EC613F78700AA8494
:1025B0002E8461EFD841634DE000B841634AE000EA
:1025C0000145F2406244D2444249B24905618280E9
:1025D00058547DD703A904009396370123A0040023
:1025E00063DC060670485E24918B99C75C401D8EA3
:1025F0005C5899C33C401D8E5C540C508146268526
:102600008297FD575A24631DF5009440F54763E90E
:10261000D706B70740208507B3D7D700858BADC352
:102620001C48232204001CC09317370163D80700FD
:10263000FD576314F5009C4091E368C84C5823A0F3
:102640002401BDDD930744046385F5002685EFF082
:102650003FA5232A0402ADB70C50014685462685C6
:102660000297FD572A86E310F5F89C40ADDF7547C9
:102670006385E70059476393E70423A0240189B7E2
:10268000136707045AA47D552DBF83A90501E3896B
:1026900009F203A905008D8B23A0350133093941C7
:1026A000014791E3D84918C4E35C20F11C540C5055
:1026B000CA864E86268582976347A0005E2493E7EC
:1026C00007045EA4C9B7AA993309A940F1BF9C4980
:1026D000A5C3011122CC06CE2A8411C51C4D81E769
:1026E0002EC62922B245971700009387A708639C3E
:1026F000F5004C408397C5009DC722856244F24097
:1027000005616FF0BFE9971700009387A7086394EE
:10271000F5000C44C5B7971700009387A703E39B08
:10272000F5FC4C44C1BFF240624401450561828022
:1027300001458280411122C406C62A844EA572A595
:10274000232005002322050023240500232205065B
:1027500023280500232A0500232C05002146814556
:102760001305C505EFD0DFAB97170000938787CD22
:102770005CD0971700009387A7CF1CD49717000051
:10278000938787D35CD4971700009387E7D500D051
:102790001CD8B240224441018280970500009385F5
:1027A00045F399AA411126C2130680069384F5FFCA
:1027B000B384C4024AC02E8922C406C69385440746
:1027C000EFF09F982A8401CD2320050023222501C4
:1027D000310508C4138684068145EFD07FA4228585
:1027E000B240224492440249410182801C4DA5E737
:1027F000411106C622C497070000938747FA1CD5EB
:10280000938701819C432324050423260504232860
:1028100005046314F50085471CCD2A84352848C07B
:1028200022851D2808C42285052848C44840014641
:102830009145EFF03FF008440546A545EFF09FEFC6
:1028400048440946C945EFF0FFEE85471CCCB2402D
:10285000224441018280828041119387018126C2F6
:1028600084434AC006C69C4C22C42A8981E7268537
:10287000EFF0DFF7938484048044DC40FD1763D6D7
:1028800007009C40B9CF8440C5BF0317C40039E797
:10289000C177850723220406232004002322040095
:1028A000232404005CC423280400232A0400232CCE
:1028B0000400214681451305C405EFD07F96232AE5
:1028C0000402232C04022324040423260404228566
:1028D000B24022449244024941018280130484069A
:1028E00071BF91454A85EFF0FFEB88C049FDB147C4
:1028F0002320F9000144E1BF797122D44AD052CC9F
:1029000056CA5AC85EC606D626D24ECE2A8AAE8A85
:10291000130485040149054BFD5B09ECB2502254B8
:102920004A8592540259F249624AD24A424BB24B0A
:1029300045618280044483294400FD1963D4090061
:102940000040E1BFDE24637BFB008397E4006387E4
:102950007701A6855285829A3369A90093848406FB
:10296000E9BF1971A6DAAE848395E500A2DC86DEA4
:10297000328463DB0500DE2423A0060093F70708FA
:1029800085E7930700401DA0300836C6EF00503B96
:10299000B246E34205FE7247BD67F98F7977BA9771
:1029A00093B717009CC2F1BF930700041CC0F650F8
:1029B0006654D654014509618280DE25011122CC7E
:1029C00006CE26CA4AC8898B2E8489CF9307740401
:1029D0001CC01CC885475CC8F2406244D2444249CE
:1029E0000561828074003000AA84EFF09FF7A24551
:1029F0002A892685EFF04FF519E98317C40013F7EC
:102A0000072079FBF19B93E727005EA4C1B79707E6
:102A100000009387C7D89CD45E2408C008C893E7F9
:102A200007085EA4A2475CC8B24781CF8315E400C3
:102A30002685EF00903311C55E24F19B93E71700C4
:102A40005EA45E243369F9002316240171B78280E5
:102A5000828001114AC803A9850022CC52C45AC001
:102A600006CE26CA4EC656C22E84328B368A63E9FB
:102A70002609DE2513F7074851C304408C495848FE
:102A8000AA8AB389B4408D44B384E4020947B3C42D
:102A9000E402138716004E9763F3E400BA8493F7B9
:102AA0000740BDCFA6855685EFF00FEA2A891DE1C4
:102AB000B14723A0FA005E247D5593E707045EA486
:102AC000F2406244D2444249B249224A924A024BFD
:102AD000056182800C484E86EFF06FD15E2493F73B
:102AE000F7B793E707085EA42328240144C84E994A
:102AF000B38434412320240104C4528963732A011E
:102B0000528908404A86DA85EF00F02C1C440145C2
:102B1000B38727411CC41C403E99232024014DB794
:102B200026865685EF00902F2A895DFD0C48568534
:102B3000EFF00FD7B5BFDE25717126D34AD14ECF46
:102B400006D722D552CD56CB5AC95EC762C566C3D9
:102B500093F70708AA892E89B284B9C39C49A9E3CF
:102B60009305000436C6EFF02FDE2320A9002328AA
:102B7000A900B24615E1B14723A0F9007D55BA502E
:102B80002A549A540A59FA496A4ADA4A4A4BBA4BC1
:102B90002A4C9A4C4D61828093070004232AF90045
:102BA00093070002A30CF1029307000302DA230D3E
:102BB000F10236CE930B5002971A0000938A8ABF17
:102BC000054C294B26841C2099C363997709B30CC3
:102BD0009440638E0C00E6862686CA854E85EFF00B
:102BE0005FE7FD57630BF518D256E69636DA1C20E0
:102BF00063850718FD579304140002D002D63ED215
:102C000002D4A301010682DC8C2015465685EF0014
:102C1000101B13841400825721E513F7070109C71D
:102C200013070002A301E10613F7870009C7130782
:102C3000B002A301E10694201307A002638AE60212
:102C4000B2572684814625461820930514001307A1
:102C500007FD6372E6068DC63ED61DA00504A5B726
:102C6000330555413315AC00C98F3ED0A28469BFEE
:102C7000724793064700184336CE634707023AD699
:102C800018209307E002631DF70418309307A00291
:102C9000631BF702F2470904138747009C433ACEAF
:102CA00063C107023ED22DA83307E04093E7270017
:102CB0003AD63ED0F1B7B387670385462E84BA97DC
:102CC00061B7FD57C5B7050402D281468147254645
:102CD000182093051400130707FD6376E606F9F242
:102CE0000C200D4617150000130545ADEF00300D03
:102CF00011CD97170000938767AC1D8D93070004D3
:102D0000B397A700025505045D8D2AD00C20194603
:102D1000171500001305C5AA93041400230CB10273
:102D2000EF00F00925C597D7FFFF9387A72D95E7FB
:102D30000257F2471377071009CF91073ECED257BB
:102D4000D2973EDA41B5B387670385462E84BA979A
:102D500041B79D07E19BA107D5B77808970600000A
:102D6000938666CF4A860C104E8597000000E700D8
:102D70000000FD572A8AE314F5FC8357C9007D55EE
:102D800093F70704E39D07DE5255D5BB78089706F5
:102D90000000938646CC4A860C104E850921D1BF8F
:102DA0001C46FD171CC663DA0700184E63C5E70012
:102DB000A9476394F5006FF0CFE21C422E8513877C
:102DC000170018C28CA38280011122CC26CA4AC8DF
:102DD0004EC652C406CE2A89AE893284B304D600C8
:102DE0007D5A63149400014509A80C204E864A853B
:102DF000EFF01FFB0504E31645FFF2406244D244A6
:102E00004249B249224A05618280357122CD26CBE2
:102E10004AC94EC706CF52C556C35AC1DEDEE2DCF0
:102E2000E6DAAA89AE843289368409C51C4D99E355
:102E3000EFF0DF9B971700009387C7936398F40C1C
:102E400083A44900DE24A18BE5C79C48F5C3930702
:102E50000002A304F1029307000302D22305F1024A
:102E600022C6930B5002971A0000938AAA94054C2D
:102E7000294B4A841C2099C3639F770DB30C2441CE
:102E8000638E0C00E6864A86A6854E85EFF0DFF35A
:102E9000FD57630FF51C9256E69636D21C206389C7
:102EA000071CFD571309140002C802CE3ECA02CC0B
:102EB000A309010482D483450900154656850127DC
:102EC00013041900C24751E913F7070109C7130793
:102ED0000002A309E10413F7870009C71307B00232
:102EE000A309E104834609001307A002638FE606E5
:102EF000F2474A848146254618209305140013079B
:102F000007FD6377E60AB5CA3ECE85A8971700008D
:102F1000938747886395F40083A4890025B79717A2
:102F2000000093872783E39FF4F083A4C90019BFAF
:102F3000A6854E85EFF0AFD619D97D55FA406A4483
:102F4000DA444A49BA492A4A9A4A0A4BF65B665C0D
:102F5000D65C0D618280050431BF330555413315C0
:102F6000AC00C98F3EC82289B9B7324793064700E3
:102F7000184336C6634707023ACE18209307E0028B
:102F8000631DF70418309307A002631BF702B247D2
:102F90000904138747009C433AC663C107023ECA2F
:102FA0002DA83307E04093E727003ACE3EC8F1B79B
:102FB000B387670385462E84BA973DBFFD57C5B7D3
:102FC000050402CA8146814725461820930514004E
:102FD000130707FD6374E606F9F20C200D4617058A
:102FE00000001305A57DE12B11CD97070000938705
:102FF000E77C1D8D93070004B397A70042450504A5
:103000005D8D2AC80C201946170500001305457B65
:10301000130914002304B1025D2335C197D7FFFFC4
:10302000938747FE95E74247B2471377071009CFCA
:1030300091073EC69257D2973ED225BDB38767030C
:1030400085462E84BA9751B79D07E19BA107D5B756
:10305000780097060000938666D726860C084E8572
:1030600097000000E7000000FD572A8AE314F5FCF2
:10307000DE2493F70704E39207EC1255C1B57800FC
:1030800097060000938686D426860C084E85012A72
:10309000E1BF797156CA9C49BA8A984522D426D292
:1030A0004ECE52CC06D64AD05AC85EC6AA892E84C5
:1030B000B284368A63D3E700BA879CC003473404DE
:1030C00019C385079CC01C4093F7070281C79C4029
:1030D00089079CC00329040013796900631A090059
:1030E000130B9401FD5B5C449840998F634CF90489
:1030F0001C408346340493F70702B336D000A5EB97
:1031000013063404D2854E85829AFD576303F50475
:103110001C4011469840998B544481446397C700E2
:10312000B384E64063D3040081441C4418486354CC
:10313000F700998FBE94014969047D5B639824056B
:10314000014509A885465A86D2854E85829A631E16
:1031500075017D55B250225492540259F249624A87
:10316000D24A424BB24B456182800509ADBF33075D
:10317000D40013060003A301C70403475404938734
:103180001600A2978906A381E7049DBF8546228683
:10319000D2854E85829AE30E65FB050945B77971A4
:1031A00022D426D24AD04ECE06D652CC56CA5AC8BF
:1031B000B689942D930790063289AA842E841386AB
:1031C0003504638DF60263E2D706930780056386B4
:1031D000F61863EDD700638E062093073004638EE4
:1031E000F60A930A24042301D404C9A093073006E5
:1031F0006385F60A93074006E395F6FE1C400843F4
:1032000093F6070893054500C5C61C410CC363D857
:1032100007001307D002B307F040A301E4049706A8
:1032200000009386665A294765A8930700076382C2
:10323000F61663E5D7029307E0066389F61893074D
:10324000F006E390F6FA0C401C4313F805081385CA
:1032500047006307080608C39C4385A893075007E7
:10326000E383F6FE930780076389F612930730071E
:10327000E399F6F61C43D04181459386470014C379
:1032800083AA07005685252E01C53305554148C040
:103290005C401CC8A301040461A81C43930A2404D5
:1032A000938647009C4314C32301F4048547D5B794
:1032B00093F607041C410CC3B9DAC207C18781BF6A
:1032C00093F5050408C3C9D99E231307F006638745
:1032D000E60E970600009386264F2947A3010404B3
:1032E0004C400CC463C5050008406D9908C099E3C3
:1032F000B28A89CDB28AB3F5E702FD1AB6958C2160
:103300002380BA00B3D5E70263F0E70CA147631E40
:10331000F7001C40858B91CB58401C4863C7E700E1
:1033200093070003A38FFAFEFD1A3306564110C817
:103330004E87CA867000A2852685EFF09FD57D5AFC
:10334000631D450B7D55B250225492540259F249E7
:10335000624AD24A424B45618280A382D5049706D5
:103360000000938666460C40084313F805081C418C
:103370001105630D080208C313F7150001C793E593
:1033800005020CC04147B9FB0C4093F5F5FD0CC09C
:10339000B1B79C4193E707029CC193078007A30242
:1033A000F404970600009386664375BF13F805047E
:1033B00008C3E30308FCC207C1837DBF9706000072
:1033C00093868640214719BFAE8735B794411C4389
:1033D000CC4913F80608138547006306080008C3A4
:1033E0009C438CC339A008C393F606049C43F5DACA
:1033F0008EA323280400B28A25BF14485686CA85A6
:1034000026858299E30045F51C40898B8DE7B247FC
:103410004844E35AF5F23E853DB785465686CA854F
:1034200026858299E30065F3050A5C443247998F4B
:10343000E345FAFEE9BF014A930A94017D5BF5B7C3
:10344000411122C42E848395E50006C625246349D4
:1034500005007C48AA977CC8B24022444101828082
:103460005E247D777D17F98F5EA4FDB7DE250111FF
:1034700022CC26CA4AC84EC606CE93F70710AA84A5
:103480002E843289B68991C78395E5008946014625
:1034900009225E247D777D17F98F5EA48315E400F1
:1034A0006244F240CE864A86B24942492685D244D9
:1034B000056125A8411122C42E848395E50006C626
:1034C000C928FD575A24631AF500FD77FD17F98FB7
:1034D0005EA4B2402244410182808567D98F5EA4F8
:1034E00068C8C5BF8395E50005A8411122C42A8498
:1034F0002E85B285368623A2015006C6EFD09FAB3B
:10350000FD576317F500938741509C4391C31CC03E
:10351000B240224441018280411122C42A842E8576
:1035200023A2015006C67922FD576317F500938741
:1035300041509C4391C31CC0B2402244410182804F
:10354000411122C42A842E85B28523A2015006C6C9
:10355000852AFD576317F500938741509C4391C31B
:103560001CC0B240224441018280411122C42A84FD
:103570002E8523A2015006C6912AFD576317F50038
:10358000938741509C4391C31CC0B24022444101E7
:103590008280411122C42A842E85B285368623A2D8
:1035A000015006C6152AFD576317F5009387415051
:1035B0009C4391C31CC0B24022444101828093F5D8
:1035C000F50F2A966314C500014582801C21E38E05
:1035D000B7FE0505C5BF63F1A504B386C500637DCD
:1035E000D5029345F6FF8147FD176393F50082806E
:1035F0003387F600034807003387C7002A97230064
:103600000701DDB73387F50014233307F50085077D
:1036100014A3E319F6FE82808147E5BF81E5B285F8
:103620006FE09FB2011122CC06CE26CA4AC84EC610
:10363000328401EEEFE0DFA60149F24062444A85A0
:10364000D2444249B24905618280AE84AA89892860
:103650002689E37485FEA2854E85EFE0FFAE2A89B8
:1036600069DDA6852286EFE09F98A6854E85EFE06E
:103670003FA3E1B7411122C42A842E85B285368644
:1036800023A2015006C6B928FD576317F50093879A
:1036900041509C4391C31CC0B240224441018280EE
:1036A00083A7C5FF1385C7FF63D50700AA959C4173
:1036B0003E9582809307800523A2F1507D5582803C
:1036C0009307800523A2F1507D55828093078005E2
:1036D00023A2F150014582809307800523A2F15077
:1036E0007D5582809307800523A2F1507D5582800D
:1036F00053797374656D436C6B3A25640D0A000051
:103700004368697049443A253038780D0A00000052
:1037100054686973206973207072696E74662065DD
:1037200078616D706C650D00B5DA2564BAC5BFA807
:10373000A3ACC0E0D0CD3A257525752C7569643AE7
:1037400030782578000000000D000000257300008F
:103750000000000000000000000000000000000069
:103760000000000000000000000000000000000059
:103770000000000000000000000000000000000049
:103780000000000000000000000000000000000039
:103790000000000000000000000000000000000029
:1037A0000000000000000000000000000000000019
:1037B000232D302B20000000686C4C0065666745A7
:1037C00046470000303132333435363738394142DC
:1037D000434445460000000030313233343536373B
:0C37E00038396162636465660000000017
:1037EC0000000000000000000102030406070809A5
:1037FC00000000000102030401020304060708098B
:10380C0001010000000000000000000000000000AA
:10381C00000000003416000000000000F40100005D
:10382C000E1F0000000000000A0000000000000055
:10383C007037000090370000503700000000000087
:10384C00000000000000000000000000000000006C
:10385C00000000000000000000000000000000005C
:10386C00000000000000000000000000000000004C
:10387C00000000000000000000000000000000003C
:10388C00000000000000000000000000000000002C
:10389C0000D8B80502040608B80D00204C00002022
:0838AC004C00002000000000A8
:00000001FF
