:040000006F00C06568
:100004000000000000000000E2030000E403000020
:10001400000000005A06000000000000000000007C
:100024005A0600005A06000000000000000000000C
:100034005A060000000000005A06000000000000FC
:100044005A0600005A0600005A0600005A0600002C
:100054005A0600005A0600005A0600005A0600001C
:100064005A0600005A0600005A06000074190000DF
:10007400381900005A0600005A0600005A0600000B
:100084005A0600005A0600005A0600005A060000EC
:100094005A0600005A0600005A0600005A060000DC
:1000A4005A0600005A0600005A0600005A060000CC
:1000B400561E00005A0600005A0600005A060000A8
:1000C4005A0600005A0600005A0600005A060000AC
:1000D4005A0600005A060000BA200000EA21000077
:1000E4005A0600005A0600005A0600005A0600008C
:1000F4005A0600005A0600005A0600005A0600007C
:10010400000000005A0600005A0600005A060000CB
:100114002E2400005A0600005A0600005A06000069
:100124005A0600005A0600005A0600005A0600004B
:100134005A0600005A0600005A0600005A0600003B
:100144005A0600005A0600005A0600005A0600002B
:100154005A0600005A0600005A060000BA2600009B
:100164005A0600005A0600005A0600005A0600000B
:100174005A0600005A0600005A0600005A060000FB
:100184005A0600005A0600005A0600005A060000EB
:100194005A0600005A0600005A0600005A060000DB
:1001A400000000000000000000000000000000004B
:0C01B4000000000000000000000000003F
:1001C000397101436EC619A0397141536AC866CAB4
:1001D00062CC5ECE19A0397101535AD056D252D496
:1001E0004ED64AD826DA22DC06DE3301614082820E
:1001F00041114AC026C222C406C68282B24D4101C4
:10020000024D924C224CB24B4101024B924A224A7F
:10021000B2494101024992442244B24041018280E4
:100220003D432A876373C3029377F700BDEFADE5C3
:10023000937606FF3D8ABA960CC34CC30CC74CC7D5
:100240004107E36BD7FE11E28280B306C3408A0602
:100250009702000096966780A6002307B700A306C2
:10026000B7002306B700A305B7002305B700A30412
:10027000B7002304B700A303B7002303B700A3020A
:10028000B7002302B700A301B7002301B700A30002
:10029000B7002300B700828093F5F50F9396850091
:1002A000D58D93960501D58D61B79396270097025A
:1002B000000096968682E78086FA9680C1171D8F89
:1002C0003E96E374C3F8A5B73367B500FD530D8BB5
:1002D00079E7B7877F7F9387F7F710419441B3722F
:1002E000F6003363F600BE92B3E262006395720CCF
:1002F0006318D6065041D441B372F6003363F6005A
:10030000BE92B3E262006396720A631BD604104584
:100310009445B372F6003363F600BE92B3E2620016
:10032000639F7208631ED6025045D445B372F6002F
:100330003363F600BE92B3E2620063987208631101
:10034000D60210499449B372F6003363F600BE92A8
:10035000B3E26200639172085105D105E30FD6F64E
:100360001317060193970601631CF7001357060144
:1003700093D706013305F7409375F50F91E9828015
:100380004183C1833305F7409375F50F91E1828076
:100390001377F70F93F7F70F3305F740828010219B
:1003A0009421050585056313D60075FA3305D640FB
:1003B000828011059105E314D6FE01458280210556
:1003C000A105E31ED6FC014582803105B105E31885
:1003D000D6FC014582804105C105E312D6FC0145EA
:1003E000828001A0B707EFBE37E700E093870708D8
:1003F0003CC701A0EFF2DFDF0945C52B71643D2248
:10040000EF00D04613050420EF00504C296513057A
:10041000F5C3EF10203E138541E5EF106044B707A8
:10042000002083A5072B3765000013050508EF2082
:100430005056652CAA853765000013050509EF2085
:100440005055376500001305050AEF203066130587
:100450000420EF10D03AEF00F052EF1030191305DE
:100460000420EF200005396513050510EF20A02DAD
:10047000EF107012EF10B012F5BFB717024098439B
:10048000B706FFF01367170098C3D843758FD8C31A
:100490009843B706F7FEFD16758F98C39843B706C5
:1004A000FCFFFD16758F98C3D843B70601FFFD16F4
:1004B000758FD8C39843B70600ECFD16758F98C3A7
:1004C0003707FF0098C723A60702B746024003A7D5
:1004D00006801367070123A0E680D843B706C1FF53
:1004E000FD16D8C3D843D8C3D84313670740D8C331
:1004F000D843758FD8C3D843B7060001D8C39843F3
:10050000558F98C3984393166700E3DD06FED843E2
:10051000B7160240719BD8C3D84313672700D8C3CE
:100520002147DC42B18BE39EE7FE8280B716024092
:10053000D842B70700201146318B9387072B6305FC
:10054000C70021466308C70237177A001307072040
:1005500098C337170240584311839376F700370743
:100560000020130707003697142398433357D7000A
:1005700098C38280D842D442416649833D8BF18E34
:100580001306270015CF3D47630FE6024147630F6F
:10059000E602454781456313E6004146A1E237473D
:1005A000024003270780418B0DC737177A001307D6
:1005B00007203306C70290C3C9DD9843058349BFAE
:1005C00081454946E1BF85453546C9BF81453D4620
:1005D000F1B737173D0013070790E1BF3715024009
:1005E00058559316F700585563DF060411833D8B69
:1005F0009306170037177A00130707203357D702DF
:1006000098C35455A182BD8A8DE295463307D7021F
:10061000058398C337170240585794433D8B05070D
:1006200033D7E60298C3984369B705456394A6009B
:10063000E546E9BF3D456396A600D1463387E6020D
:10064000C9BF8906E5BF3D8B9306170037177A00AF
:10065000130707203357D702F1B701A097010020F5
:1006600093814145178100201301C199176500004E
:100670001305C5E3970500209385C59813868184EB
:1006800063FAC5008322050023A0550011059105DA
:10069000E3EAC5FE13858184971500209385054FF5
:1006A0006377B500232005001105E36DB5FEFD421B
:1006B000739002BCAD4273904280B7620000938297
:1006C000820873900230970200009382E29393E2D3
:1006D000320073905230EFF05FDA9702000093829D
:1006E000A2D17390123473002030B7F7FF1F03A517
:1006F000477082801C4141677917F98F1CC1232004
:1007000005002322050023240500B7070240232605
:100710000500138787006317E500D8431367F700C8
:10072000D8C382801387C7016316E500D8431367D7
:10073000070FFDB7138707036318E500D8438566E5
:10074000938606F0558FE9BF138747046315E500CC
:10075000D843BD66C5BF138787056316E500D84338
:10076000B7060F00C5B71387C7066316E500D84361
:10077000B706F000C1BF138707086316E500D8432A
:10078000B706000FC1B7138787406319E50003A7B9
:1007900047401367F70023A2E74082801387C741D1
:1007A0006317E50003A747401367070FEDB793876B
:1007B0000743631BF500B707024003A74740856660
:1007C000938606F0558FC1BFB70702401387474491
:1007D0006316E50003A74740BD66EDB7138787455D
:1007E0006317E50003A74740B7060F00E1BF138773
:1007F000C7466317E50003A74740B706F000D9B71F
:10080000138707486317E50003A74740B706000FA3
:1008100055BF138707496319E50003A7474D1367C1
:10082000F70023AAE74C82801387074A6317E50085
:1008300003A7474D1367070FEDB71387074B6319DE
:10084000E50003A7474D8566938606F0558FD1BF17
:100850001387074CE319E5FC03A7474DBD66FDB7B9
:100860001C4161773D0794517D8F9C45D58F9449FC
:10087000D58FD449D58F944DD58FD44DD58FD451A4
:10088000D58F9455D58FD98F1CC1DC455CC19C4157
:100890001CC5DC415CC582801C4189C593E71700FB
:1008A0001CC1828041677917F98FDDBF484142053D
:1008B000418182809317350063DA0700B707024051
:1008C00083A707407D8D3335A000828093172500D4
:1008D00063D70700B707024083A7074DE5B7B707FF
:1008E00002409C43C5B79317350063D70700B7078D
:1008F000024023A2A74082809317250063D70700F8
:10090000B707024023AAA74C8280B7070240C8C39A
:100910008280EFF2FF8D793FF5B8EFF27F8DE137FE
:10092000D5B89C4513F7070113F8F70001C7D84164
:100930003368E8008E2113F7F50F39C3184181465B
:10094000854E3D4F930F800293028004214E3396D3
:10095000DE00B3F8C5006311160393982600331325
:100960001F011343F3FF3377E300B318180133E794
:10097000E800639FF70550C98506E39AC6FD18C1D4
:100980001307F00F6375B70454412146854E3D4F60
:10099000930F800293028004414EB398CE0033F748
:1009A00015016392E8021317260001173313EF00B5
:1009B0001343F3FFB376D3003317E800D98E639D5A
:1009C000F701232A15010506E319C6FD54C18280EB
:1009D000E39457FA10C94DB7E39757FE2328150142
:1009E000DDB70CC982804CC9828023A4A184828097
:1009F00003A78184894710216311F70214318D47C1
:100A000063EDD7003C219A0637E700E09607D58FC3
:100A100093F7F70F32972300F74054410547935758
:100A200056003317C70089CA938707048A07B7E6B9
:100A300000E0B69798C3828093870706B7E600E088
:100A40008A07B69798C30F1000008280377700405E
:100A50001C4309C593E707101CC3828093F7F7EF87
:100A6000E5BF371702405C5309C593E717005CD315
:100A70008280F99BEDBF371702401C535D8D08D370
:100A8000828001C9371702401C53A166D58F1CD341
:100A90008280B71602409C5261777D17F98F9CD2F5
:100AA0008280371702405C439146B18B6385D70043
:100AB000A1466384D706B7177A00938707201CC125
:100AC000371602405C423707002013070701918365
:100AD000BD8BBA9794231C41B3D7D7005CC1544255
:100AE000A1829D8ABA969422B3D6D70014C55442E7
:100AF000AD829D8A36971823B3D7E7005CC558426C
:100B0000398393763700370700201307472B369732
:100B10001823B3D7E7021CC982805C435843C166DF
:100B2000C983758FB7F6FF1F83A6C670BD8B890773
:100B30001396160163480600C54601466392D70224
:100B4000C94739A88946638FD702BD46638ED7024D
:100B5000C146638ED702C54601466393D700C1479D
:100B60001DEF3747024003270780418B05C7371722
:100B70007A0013070720B307F7021CC131D21C41CA
:100B8000858335BF01466DBF0546B547D1BF0146D8
:100B9000BD47F9B737173D0013070790E9BFB715F1
:100BA0000240D8559316F700D85563DF0604118329
:100BB0003D8B9306170037177A001307072033572A
:100BC000D70218C1D455A182BD8A8DE2954633075C
:100BD000D702058318C137170240585714413D8B7F
:100BE000050733D7E60218C1184171B785456394EC
:100BF000B600E546E9BFBD456396B600D1463387EA
:100C0000E602C9BF8906E5BF3D8B9306170037177B
:100C10007A00130707203357D702F1B799C5371762
:100C200002405C4B5D8D48CB8280B7170240D84BA9
:100C30001345F5FF798DC8CB828099C537170240DF
:100C40001C4F5D8D08CF8280B7170240984F134527
:100C5000F5FF798D88CF828099C5371702405C4FA8
:100C60005D8D48CF8280B7170240D84F1345F5FFFE
:100C7000798DC8CF82809357550005476399E70067
:100C8000B71702409C4333D5A700058982800947E6
:100C90006396E700B71702409C53F5B7B7170240B9
:100CA000DC53D5B7B737004003D747801367070138
:100CB0002392E78082803737004083574780C207FE
:100CC000C183BD9BC207C1832312F7808280373660
:100CD0000040835686810357868142074183E31A89
:100CE000D7FE373600408356C6818357C681C20778
:100CF000C183E39AD7FEB735004003D6858103D57B
:100D0000858142054181E31AC5FE630CA700B73611
:100D1000004003D7C68183D7C681C207C183E39A47
:100D2000E7FE42055D8D8280EFF28FCC41112AC62D
:100D3000953F3245B7370040135705014205239CC4
:100D4000E7804181239EA780BD3741016FF08FCCA2
:100D5000EFF20FCA41112AC6B1373245B73700400A
:100D6000135705013D8B42052394E780418123966B
:100D7000A780913741016FF0EFC9373700408357A3
:100D8000478093F70702E5DF8280373700408357BB
:100D90004780C207C183DD9BC207C1832312F7804E
:100DA0003737004083574780A18BEDDF82801A21BF
:100DB0008D6793870704B6217D8F9E21D58FD6211D
:100DC000D58FF621D58F9625D58FB625D58FD625EB
:100DD000D58FF625D58FD98F1EA15A2DFD779387F4
:100DE000F77FF98F5EAD9E291EA982801E2189C5DD
:100DF00093E707041EA18280C207C18393F7F7FB24
:100E0000C207C183C5BF4EA582804A2582800A25BC
:100E10006D8D3335A00082801E2137370140930647
:100E200007C0C207C1836300D504B7060040630C46
:100E3000D502938606406308D502B7160040138694
:100E400006806302C502938606C0630ED5001307B1
:100E50000740630AE50037570140930607C0630463
:100E6000D5006316E500BA2193F7F7F8D98F371745
:100E70000040630CE500130707406308E50093F7A3
:100E8000F7CFFA21C207C183D98F1EA1DE215EB53B
:100E90009E211EB5B7370140138707C0630EE500DA
:100EA00093870740630AF500B7570140138707C0CF
:100EB0006304E5006314F5009C251EB985475EA90F
:100EC00082801E2189C593E717001EA18280C20778
:100ED000C183F99BC207C183CDBF5E2501C6DD8DED
:100EE0004EA5828093C5F5FFFD8DDDBF1E25C2078F
:100EF000C183E19BC207C1831EA582800A296D8D33
:100F00003335A000828093C5F5FFC205C1810EA9CB
:100F1000828093C5F5FFC205C1810EA98280EFF2E0
:100F20002FAD1629F577FD17F58FF621DA257971A2
:100F3000D58F1EA95625FD779387379FF58FD6212C
:100F40002A842EC6D58F9625D58FB625D58F5EA53A
:100F50005E29C207C18393F7F7CFD98F5EA96808CE
:100F60008936B747014093870780B245631EF40274
:100F7000A2576547B387E7029841930640060A07E0
:100F8000B3D7E70233D7D702B3F7D70212079207D6
:100F900093872703B3D7D702BD8BD98FC207C183ED
:100FA0001EA445616FF00FA79257E1B791C55E256A
:100FB0000967D98F5EA582805A25F977FD17F98FC9
:100FC000D5BF13F7F50F85471583B395B7006319A0
:100FD000F7009307C500984301CED98D8CC382805A
:100FE000894693074501E318D7FE93070501E5B746
:100FF00093C5F5FFF98DDDB75E2901C6DD8D4EA9DC
:10100000828093C5F5FFFD8DDDBF93F5F51F4EA1E1
:1010100082800A216D8D3335A000828013F7F50F91
:1010200085461583B397B6006311D7025A25F98F09
:101030001A2101454207418381CB0545A181B315A2
:10104000B5006D8F3335E000828089466314D70088
:101050001A29F1BF5A29E1BFA1818547B397B7008B
:1010600093C7F7FFC207C1831EA18280B707002084
:1010700083A7072B37177A0013070720B3D7E70298
:1010800093F7F70F2387F1841307803EB387E702B6
:101090002396F1848280B7F700E0D8438146799B9C
:1010A000D8C303C7E1843306A70290CBD4CB9843BF
:1010B0001367070198C398431367170298C3D8436F
:1010C000058B75DF9843799B98C38280EFF24F922E
:1010D0002A84116501118545110585369307002085
:1010E0007C82371501408D473EC44C00E147130513
:1010F00005803EC6EFF0FF8222C837440140B707A3
:1011000008000C08130504803ECC02CA231E01000F
:101110003935854513050480513D05616FF08F8F8A
:10112000EFF26F8BB7440140AE893289014493845A
:101130000480634524014A856FF02F8D93050004D8
:101140002685C13D65DDB387890083850700268537
:101150000504C205C181553DE9BF138781801C4349
:10116000B7260020938686B83E95636BD500B78678
:1011700000209386068063E5A60008C33E85828032
:10118000FD57EDBFEFF2CF860565011185453105AD
:101190006D34371401409307000A7C80E1448D4789
:1011A0008A85130504803EC226C4EFF08FF79307AB
:1011B00000047C808A859147130504803EC4EFF0CB
:1011C0004FF6C14741498A85130504807C804AC493
:1011D000EFF02FF585478A85130504C07C804AC44B
:1011E000EFF02FF4B70704013EC6B70700023ECA6E
:1011F0006C009D4737350140FC8626CC02C8453E31
:10120000854537350140DD36C14513050480EFF0D3
:101210004FFD05616FF00F80EFE29FFDAA84EF00A4
:10122000903C2A8437150140C14513050580EFF035
:101230008FFB9395140093F5E50793E50508373583
:101240000140D1369304843E894537350140C1368B
:1012500001E9EF005039E36995FEEF00D03805440D
:101260009304843E854537350140553601E9EF004A
:101270009037E36995FEEF0010370544373501409C
:101280006936814537350140BD3E9304843E89452A
:1012900037350140AD3E01E9EF00F034E36995FEDA
:1012A000EF00703405441304843E85453735014012
:1012B000B93E19E5EF003033E36985FEEF00B03247
:1012C0003735014099362A8437150140C145130549
:1012D0000580EFF00FF11375F40F6FE0BFF3EFE24D
:1012E0003FF1AA842E89EF0010302A84371501407F
:1012F000C14513050580EFF00FEF9395140093F5AA
:10130000E5073735014001369304843E894537357A
:101310000140F53C01E9EF00102DE36995FEEF0077
:10132000902C05449304843E854537350140C534EF
:1013300001E9EF00502BE36995FEEF00D02A054448
:1013400037350140D934CA85373501406D3C9304A7
:10135000843E8945373501405D3C01E9EF00B02806
:10136000E36995FEEF00302805441304843E85456B
:1013700037350140693C19E5EF00F026E36985FE49
:10138000EF00702637350140493437150140C1451B
:1013900013050580EFF0EFE46FE0DFE7EFE25FE5D4
:1013A000EF007024B714014085452A84138504C0DA
:1013B000EFF02FE30545C5318545138504C0EFF0F7
:1013C0008FE20545C9398545138504C0EFF06FE10B
:1013D0000545D131BD45054519371304843E054502
:1013E000253D418919C5EF001020E36A85FEEF0015
:1013F000901F05454D319305D0034545CD35F94541
:101400001305D002E93D81451305C002C93D93058E
:10141000D0081305A002E1359305E0031305B002DF
:101420007D3D9305000455455D3D130560026FE069
:101430007FDEEFE2FFDB41112A842EC6F13BB2458D
:10144000C98D93F5F50F2285593D41016FE09FDC71
:10145000EFE21FDA41112A842EC67D3BB24593C5C7
:10146000F5FFE98D93F5F50F2285953D41016FE07C
:101470007FDAEFE27FD5B147AA84AE8B328BB68993
:101480003A8A6301F50EB9476303F50E0149014439
:10149000936504080945A1359305000811454D3FA2
:1014A000814505452D3D9305000829455937814A59
:1014B00063E26A0DA68505451D35B1476396F400C4
:1014C000930500083545B5371145B933930AC05D1A
:1014D0001369190011458933FD1A2A8B63850A00A7
:1014E000B3772501E5DB9305000835459537638A19
:1014F0000A08194515336D8949E533746401058877
:101500001309600219C01309C0FCB1476392F404C7
:1015100029451933AA84314501331D899397340035
:1015200009C59387F4FF8E07AA972320FA00054484
:1015300099C4C94713F4F40F63F3970049448144F5
:101540002545D939B387990088A38504E3EA84FE49
:10155000930500083145F13D8145054549334A85EC
:101560006FE01FCA130900031304700715B7414940
:10157000494439BFB3875B018C232545850A8533F0
:1015800005BF1309B0FBE9B7EFE29FC651456931CA
:101590000D8901E58D455145693D6FE0BFC7EFE21B
:1015A0003FC58D4551456D356FE0DFC6EFE25FC445
:1015B0002A84AE84154591453289593D81450545BA
:1015C000393B930500082945AD35A294631B94026D
:1015D0008D45054529331304F00F7D14154513740B
:1015E000F40F1D3919C011896DD9130520022D3151
:1015F0002300A900130510020531A300A9006FE024
:101600007FC10C2025450504D939C9B7EFE25FBE7B
:101610000111930700051306E100680089457C86E7
:101620007137740038001146B68531459935130578
:10163000600205616FE01FBEEFE29FBB0111AA844B
:101640002E842145A14529359D45354549398D458E
:101650005145C533740038000546B685314544868A
:10166000093D93076002631DF5002247C1476319D6
:10167000F7001C861CA09C861CB005616FE09FB91A
:101680001305B0FBDDBFEFE2BFB60111A145AA848F
:1016900021457D3B81453545993193050008394504
:1016A000453B740089679387370938000946B6853A
:1016B00031457C867D3B930760022A846315F502E1
:1016C0008147014711467400BE969422B385F40009
:1016D000850794A1358FE398C7FE83470101638492
:1016E000E7001304B0FB93050008394599332285C0
:1016F00005616FE03FB2EFE21FAE2A899384418912
:101700000144130A450193090004A6854A85EFE0C8
:10171000BFBB01ED938544015285EFE0FFBA11E5AF
:101720001315840161856FE05FAE0504DD04E31EDF
:1017300034FD7D55CDBFEFE21FAA938741898144D7
:101740001384418913070004F42B81CA8504DD0743
:10175000E39CE4FE7D556FE05FAB5D493389240374
:10176000AA8951468145B30724013E855109EFE01E
:101770003FAB4A9423000400A30004005146CE85E9
:10178000EF10402C03C7490118A003C7590118B036
:10179000054778A913958401618575BFEFE25FA5C0
:1017A00001115D4681452800EFE09FA76C081305F5
:1017B00020055935930760026308F500C536C53327
:1017C000E13305616FE01FA52A8428006D3DE31A0F
:1017D00085FE28000D37FD57631CF5009387F184C3
:1017E00098239376170089C6799B280098A3A13780
:1017F000313DC1BFEFE2DF9F85452A8437050018E0
:10180000EFF08FC50545EFF06FA40545EFF06FA52C
:1018100013051006EFF02FC665DD13050020EFF06D
:101820008FA50545EFF0EFA5EFF0CFC72285EFF0CC
:101830002FD2EFF08FD4EFF00FC8EFF00FD59387D2
:1018400041E51307D007D8CB114798CBD8C74D47F0
:1018500098C71307B003D8C398C301456FE09F9B97
:1018600058499307500463C8E70005458280054541
:1018700021616FE03F9A1849AD47E3C8E7FE5C4538
:10188000E355F0FE1845DD47E3C1E7FE58419307F5
:10189000B003E3CCE7FC1841E3C9E7FCEFE25F9556
:1018A0003971AA852A84130640026808EF1080194E
:1018B0006808EF10A04022575C44E31AF7FA325749
:1018C0001C48E316F7FA42575C48E312F7FA2AC6B7
:1018D000EFF04FBD3245EFF02FC5EFF00FCAEFF03C
:1018E0008FBD014571B705C9EFE29F9041112A8470
:1018F000EFF0EFBD2AC4280002C6EF001077AA85DA
:10190000054599C5130640022285EF10A013014535
:1019100041016FE03F9005458280EFE27F8D1385A6
:1019200041E5D137138541E5EF10403923A8A18463
:1019300023AAB1846FE01F8E41111305000222C655
:10194000EFE03FFD05C513050002EFE01FFD370482
:1019500000203705024085471304040281457105C4
:101960001CA0EFE07FF31C4891C3829732444101F1
:10197000730020300945EFE0DFF905C10945EFE0CC
:10198000DFF9B707002037050240938707020547B4
:101990008145210598B3EFE03FF073002030EFE27E
:1019A0003F850111AA842E841306000281450A8511
:1019B000EFE01F8793874181942098236392E61874
:1019C00005477D55630FE40E98309C33631BF70E7B
:1019D0009305E4FFC205C181EDC501479386C1802F
:1019E00011453386E400B387E60030229C23631957
:1019F000F6149387F5FFC207C183638307140507B5
:101A0000631BA706F4201D477D55639CE60A054726
:101A10006389E70AF4309C24F115C205A206C1814E
:101A2000DD8EC5C163EFD5088A87254713868600FA
:101A30006355E60499470147138656006357F60439
:101A4000B694FC3090247955A207D18F631BF7061A
:101A500003C7A1851146938781856307C708636E15
:101A6000E60289466307D70663EAE60A0546630687
:101A7000C7046177A9A0BE85ADB7B385E4008C210A
:101A800005078507A38FB7FE65B7B385F4008C21E2
:101A900085072E974207418355B799466302D704BD
:101AA000636CD702B1466308D70893062002E3129D
:101AB000D7FC18805DFF92A321A0108011E69AA3A5
:101AC000014505616FE00FF513070010E313D6FA27
:101AD000FDB71480D9FEE5B7188041FF2147C5B78F
:101AE000188041FB4147E1BF10801DE2E373D7F846
:101AF000130700029AA39C801881A207D98F23980C
:101B0000F1809C811882A207D98F239EF1844DBF5A
:101B10002547E310E6F61307002055B718809376A3
:101B2000770F81E61307000459BFB146E313D7F4DA
:101B30001307004069B718800DFF1307000841B76D
:101B40007D5541B703D781859387818593761700AB
:101B500099C2799B9AA39A239376270099C2759B81
:101B60009AA39A239376470099C26D9B9AA39A23CE
:101B70009376870099C25D9B9AA39A239376070177
:101B800099C23D9B9AA39A239376070281C6137745
:101B9000F7FD9AA39A239376072081C61377F7DF80
:101BA0009AA39A239376070481C61377F7FB9AA327
:101BB0009A239376074081C61377F7BF9AA39A2397
:101BC0009376070881C61377F7F79AA39A2393763B
:101BD000071081C61377F7EF9AA39A23931607018C
:101BE000C18663D50600460745839AA38280EFE24B
:101BF0002FE02A84B304B500376900006314940011
:101C00006FE04FE105048345F4FF1305090CA1299A
:101C1000F5B7EFE2EFDD2A84B304B50037690000C1
:101C2000631494006FE00FDF05048345F4FF130590
:101C3000090C9523F5B7EFE2AFDB2A84B304B500B6
:101C400037690000631494006FE0CFDC050483451E
:101C5000F4FF1305090CEF005007EDB7EFE2AFD723
:101C6000AA848146014A81470147054E854E13F8F3
:101C7000F60F8834636CC802014925C11384E7FF5D
:101C8000198C09071374F40FB389E5009C24635B76
:101C9000F904D84093173900BA979823631647017F
:101CA000DC43A2854E8582970509CDB73383D500E5
:101CB0008348030009C5630DD50185064DBF882003
:101CC000E31D15FF034A13004287A384C401F5B73F
:101CD0008830E31415FFC287CDB7376500001305C0
:101CE000850B5126A38404006FE02FD2EFE24FD082
:101CF0002A84232205002320050041110CC82E85CB
:101D00002EC6EF00F052324608C48145EFE04FD1B5
:101D10002326040041016FE0EFCF58451C492E9661
:101D20006314F7027D55828014411C45850503C765
:101D3000F5FFB69798A31C4118498507B3F7E7024A
:101D40001CC15C4585075CC56386C50058451C49B8
:101D5000E36CF7FC014582805C4585CF81476316C3
:101D6000F600139587016185828058457DDB5441DB
:101D70001845369714233387F500850714A3584177
:101D8000144905073377D70258C158457D1758C500
:101D9000F9B77D558280114723A0E1868280EFE26A
:101DA0008FC39120938781863704002088C323A2A4
:101DB00007001304840501499384818683A7018663
:101DC0006364F9006FE06FC458401C44BA97D84070
:101DD00001E798406366F7001C4082979C405CC016
:101DE00005093104E1BF03A501878280EFE24FC0FE
:101DF000011185450545EFE03FE637050040EFF06E
:101E0000EF8E9307F0083ECA4C089307703E3705E3
:101E100000403ECC230E0100EFF00F8085453705D2
:101E20000040EFF00F8F0546854537050040EFF085
:101E3000CF8A85473EC868009307C0027C86230787
:101E40000100EFE0FFBA854537050040EFF06F87EE
:101E500005616FE02FBC854537050040EFF00F8A24
:101E600085476311F502854537050040EFF06F8A1D
:101E7000854537050040EFF00F8993870187984328
:101E8000050798C373002030EFE2EFB47971AA8A96
:101E90008545054502CA02CC02CE02D002D202D448
:101EA00002D6EFE0BFD7854537050200EFE0DFDA65
:101EB00085451145EFE07FD8B7040240138504083B
:101EC000EFE05F839387C1EF374400401387011C25
:101ED000D8C3130900084147130A44408D6993850C
:101EE000C1EF1385040823A0470198C723A6270143
:101EF00023AA270123A2370323A8070023AC070046
:101F000023AE070023A0070223A40702EFE05F959A
:101F10001385C406EFE00FFE938701ED138701FCE4
:101F2000D8C31385C40613070020938501EDD8C7D5
:101F300023A0470123AA270123A2370323A40700D4
:101F400023A8070023AC070023AE070023A0070245
:101F500023A40702EFE0DF909147FC82371901408C
:101F60008D473ECC4C08E147130509803ECEEFE09B
:101F70005F9BA147FC824C089147130509803ECE28
:101F8000EFE03F9AB7070C000C10130504403ED455
:101F900056D002D223160102EFE07FF80546130562
:101FA000044093054042EFF0CF818545130504407E
:101FB000EFE0DFFF930760337C86680085473EC80B
:101FC00023070100EFE0DFA2138504088545EFE059
:101FD000BF8C1385C4068545EFE01F8C13050440B4
:101FE000054693050004EFF02F8105469305000890
:101FF00013050440EFF04F8045616FE00FA1EFE261
:102000002F9F5935930500201385C1FAEFF01FCE9D
:102010006FE04FA0EFE2CF9D2A84AE843705000227
:10202000EFE05F8965DD2686A2851389011C138593
:10203000011CEF0030213704024013050408EFE0D3
:102040006FEB9387C1EF130504089385C1EF23A2BB
:102050002701C4C7EFE0DF80854513050408EFE0E2
:10206000BF836FE02F9B317122CD3744004026CBD8
:1020700006CFAA842ED332D536D73AD93EDB42DDFD
:1020800046DF13040440930500082285EFE07FF843
:102090007DD95411268693050008080836C6EF102E
:1020A000C0780808EF1060249375F50F08089D3775
:1020B000FA406A44DA4429618280411122C63744D9
:1020C0000040930540421305044026C4EFE01FF58D
:1020D00085476314F5061305044093054042EFE07D
:1020E000BFF70357044083574440370402408145FB
:1020F0001305C406938451879CA0EFE0EFF9130504
:10210000C406EFE0AFFA3306A0401376F60F93074C
:10211000002090A03CD8938501FC1385C1FAEFF014
:10212000DFBF1304C40685452285EFE0EFF69387F1
:10213000818798231367170098A33244A244410172
:1021400073002030EFE2CF8A2A84AE8413050002A8
:10215000EFE04FF665DD2686A285138941351385AC
:102160004135EF00300E370402401305C401EFE0A3
:102170006FD8938781F21305C401938581F223A25E
:102180002701C4C7EFE0CFED85451305C401EFE09B
:10219000AFF06FE02F88317122CD3754004026CB4D
:1021A00006CFAA842ED332D536D73AD93EDB42DDCC
:1021B00046DF13040480930500082285EFE07FE5E5
:1021C0007DD95411268693050008080836C6EF10FD
:1021D000C0650808EF1060119375F50F08089D376A
:1021E000FA406A44DA4429618280411122C6375498
:1021F00000409305404213050480EFE03FE285472D
:102200006312F5061305048093054042EFE0DFE416
:1022100003570480835744803704024081451305E7
:102220000403EFE06FE713050403EFE02FE8330644
:10223000A0401376F60F238BC186930700105CD85D
:102240009385412513850124EFF03FAD130404036A
:1022500085452285EFE04FE49387918798231367A4
:10226000170098A33244410173002030EFD2BFF62B
:1022700079712A8B8545094502CA02CC02CE02D06B
:1022800002D202D402D6EFE07F99854537050800D7
:10229000EFE09F9C85454145EFE03F9AB70402403F
:1022A00013858445EFE00FC5938701F8375400404C
:1022B00013878166D8C3930A44C04147130A00209C
:1022C000930900080D69938501F81385844523A0BF
:1022D000570198C723A6470123AA370123A2270342
:1022E00023A8070023AC070023AE070023A00702A2
:1022F00023A40702EFE0CFD613850443EFE08FBF9E
:10230000938741F51387814613850443938541F5EF
:10231000D8C323A0570123A6470123AA370123A22C
:10232000270323A4070023A8070023AC070023AE3C
:10233000070023A0070223A40702EFE06FD2930750
:102340000040FC828D473ECC4C08E14737150140E8
:102350003ECEEFE00FDD856793870780FC824C0857
:102360009147371501403ECEEFE0AFDBB7070C00D9
:102370000C10130504C03ED45AD002D22316010219
:10238000EFE0FFB90546130504C093054042EFE0B6
:102390005FC38545130504C0EFE05FC19307403478
:1023A0007C86680085473EC823070100EFE04FE4C4
:1023B000138584458545EFE02FCE1385044385457D
:1023C000EFE08FCD130504C0054693050004EFE050
:1023D000BFC2054693050008130504C0EFE0DFC146
:1023E00045616FD09FE2EFD2BFE02A84AE8437050B
:1023F0000210EFE02FCC65DD2686A285138581666D
:1024000091253704024013058445EFE0AFAE938772
:1024100001F813058445938501F8C4C7EFE04FC464
:10242000854513058445EFE02FC76FD0BFDE41110E
:1024300022C63754004093054042130504C0EFE024
:10244000FFBD85476313F506130504C0930540429D
:10245000EFE09FC0035704C0835744C037040240D5
:10246000814513050443EFE02FC313050443EFE058
:10247000EFC33306A0401376F60FA38BC1869307F4
:102480000020232AF4429385814613854145EFF0CD
:10249000DF881304044385452285EFE0EFBF93876F
:1024A000A18798231367170098A332444101730052
:1024B0002030EFD2FFD3EFF07FDB930500201385B0
:1024C0004145EFF0BF826FD0FFD4130101DC232C14
:1024D000812037540040232A9120232E1120AA84E2
:1024E0002322B1222324C1222326D1222328E12220
:1024F000232AF122232C0123232E1123130404C0A9
:10250000930500082285EFE0DFB07DD954142686BC
:1025100093050020080836C6EF1020310808EF00A8
:10252000D05C9375F50F0808EFF0FFEB8320C12115
:102530000324812183244121130101248280EFD2CD
:102540009FC97971AA8A8545094502CA02CC02CE83
:1025500002D002D202D402D6EFE04FEC854513053B
:102560000004EFE06FEF85454145EFE00FEDB70464
:1025700002401385C446EFE0EF973727002093878A
:1025800041EA1307C7B237240040D8C3414798C770
:10259000130A448013070004930900080D6993850A
:1025A00041EA1385C44623A04701D8C723AA3701AF
:1025B00023A2270323A8070023AC070023AE0700AC
:1025C00023A0070223A40702EFE08FA91385044884
:1025D000EFE04F9237170020938781E71307C77208
:1025E000D8C31385044813070040938581E7D8C7F3
:1025F00023A0470123AA370123A2270323A407000E
:1026000023A8070023AC070023AE070023A007027E
:1026100023A40702EFE0CFA48547FC828D473ECC80
:102620004C08E147371501403ECEEFE08FAF8947B8
:10263000FC824C089147371501403ECEEFE06FAE6B
:10264000B7070C000C10130504803ED456D002D2FC
:1026500023160102EFE0BF8C0546130504809305A5
:102660004042EFE01F96854513050480EFE01F947C
:10267000930770357C86680085473EC823070100B4
:10268000EFE00FB71385C4468545EFE0EFA0138553
:1026900004488545EFE04FA01305048005469305E7
:1026A0000004EFE07F9505469305000813050480BC
:1026B000EFE09F9445616FD05FB5411122C637248A
:1026C00000409305404213050480EFE03F958547A5
:1026D0006317F5061305048093054042EFE0DF978A
:1026E0000357048083574480370402408145130513
:1026F0000448EFE06F9A13050448EFE02F9B330680
:10270000A0401376F60F238AC186B71500209307E1
:102710000040371500202322F4489385C572130525
:102720008571EFF08FDF1304044885452285EFE0C3
:10273000AF969387B18798231367170098A3324405
:10274000410173002030EFD2BFAAEFF05FDF3715F1
:1027500000209305004013058571EFF02FD96FD04D
:102760007FABEFD2FFA8938781879823017193767F
:10277000170085CA799B1306002081450A8598A316
:10278000EFD01FAA4D468A851385C1FAEFF0CFDC42
:102790001376F50F370500208A8513054503EFF002
:1027A000EFCB9387918798239376170095CA799BEF
:1027B0001306001081450A8598A3EFD07FA6938762
:1027C0000124D0478A8513850124EFF0EFD81376D2
:1027D000F50F370500208A8513050504EFF00FC8B3
:1027E0009387A18798239376170095CA799B130640
:1027F000002081450A8598A3EFD09FA29387414589
:10280000D0478A8513854145EFF00FD51376F50F34
:10281000370500208A851305C504EFF02FC4938780
:10282000B1879823937617008DCE799B37150020BA
:1028300098A393078571D0473714002093058431FE
:1028400013058571EFF04FD19375F50F13058431A2
:10285000EFF0EF9413060040814513058431EFD06B
:102860003F9C130101206FD0FF9A41119387818112
:1028700022C4804326C206C65C5CAA8489E713058D
:1028800040027D2248DC4C5C2244B24026859244C2
:10289000410109A001114AC84EC603290500832938
:1028A0004500556622CC1306061881462E844A85BB
:1028B000CE8526CA06CEEF20507E5566AA84130622
:1028C000061881464A85CE85EF30603A634F051081
:1028D000B7050B009385C5A68567938707E1334746
:1028E000F502B386B4003365F5029307C00318C43C
:1028F0003347F5023365F50258C0938736001D470C
:10290000B3E7E70208C063D307009D071CCC63D779
:10291000060EB7C7FDFF9387075537470200B697E6
:10292000130717ABB3C7E702B7C5FDFF9385F5548F
:1029300025651306C5EA1308405B1307D016130577
:1029400045E9B385B702B69533D6C502B3D60503BC
:102950002E96158EB7460200938606ABB3D6D502E7
:10296000B306D64033D6E60233D5A602B3D6060365
:10297000AA953307E602B386D54095453387E640EE
:102980003305B70293069009130817000905B358D9
:10299000D502B386D8028906B3D6B6028945B306F6
:1029A000D8401308905F6373A800D9551305001928
:1029B000B387A702C69513B52500B297AA9713054A
:1029C00010136374E5041307E7EC9387478958CC29
:1029D0005CC80CC854C4232004022285F24062441F
:1029E000D2444249B24905618280D567938707186E
:1029F000B7050B003E959385B5A6F9BDB747020014
:102A0000938717ABB3C7F60205B71375360019E500
:102A1000130540063375A602054819E5130500198C
:102A20003376A602133816001307B703429771BF17
:102A300093878181AA85884359A593878181AA8537
:102A40008843D1ABB3C7A5008D8B3307C50081E7A1
:102A50008D4763EDC700AA87637EE508942185074B
:102A60008505A38FD7FEE3EBE7FE828093763500E2
:102A7000AA8789CA942185078505A38FD7FE93F677
:102A80003700C5BF9376C7FF138606FE63F0C706FF
:102A900083A3050083A2450083AF850003AFC50073
:102AA00083AE050103AE450103A3850183A8C501DB
:102AB0009385450223A0770003A8C5FF23A25700F2
:102AC00023A4F70123A6E70123A8D70123AAC7015E
:102AD00023AC670023AE17019387470223AE07FF9D
:102AE00075B790419107910523AEC7FEE3EBD7FE82
:102AF000E3E6E7F68280011122CC2A84084106CE63
:102B00009307B00363F0A7029305C003EF00B06E14
:102B10002AC45C40A2462EC63247B6975CC06341C9
:102B2000070C18C048409307B00363F0A702930551
:102B3000C003EF00506C2AC41C44A2462EC6324784
:102B4000B6971CC46344070A58C00844DD4763FFB6
:102B5000A700E145EF00306A2AC45C44A2462EC6B5
:102B60003247B6975CC46349070818C40848AD47A4
:102B700063FFA700B145EF0010682AC45C48A24675
:102B80002EC63247B6975CC8634D070618C858482A
:102B9000F1479376370085E293064006B366D70285
:102BA000F54791EA9307C77613070019B3E7E702E1
:102BB00093B71700F1075844634AE004FD552D45CB
:102BC00013084006930800190543173E0000130E32
:102BD000AE4F50446351C006F240624405618280AA
:102BE0001307C703FD1718C05CC02DBF1307C70329
:102BF000FD1758C01CC491BF6107FD1718C45CC401
:102C0000B5B73107FD1718C85CC851B785451735EA
:102C100000001305654B3148930840061303001963
:102C200018485444630DB704131627002A9610421F
:102C3000634AD60455B718487D1718C86317B702FA
:102C4000584808C8F1479306F7FF54C893FE36006A
:102C5000639D0E00B3E60603F54781EA9307B77656
:102C6000B3E7170393B71700F1071848BE8663054B
:102C700067000A0772971443369650C499BFE3DD84
:102C8000D7F43E86918E050754C418C8E31A07F995
:102C9000584823280400F1479306170054C813F638
:102CA00036003DFEB3E61603F547BDFA9307D77627
:102CB000B3E7670293B71700F1079DB7797106D69E
:102CC00022D426D24ECEAA8452CC5AC85EC64AD04E
:102CD00056CA62C466C26AC0EF10201BAA8B268542
:102CE000EFF07FE1DC409309C0030567B389F90287
:102CF0009C40130707E1C04403AB44017D14BE9917
:102D00009C44B387E702984893162700BE999737EB
:102D100000009387673EB6979C4313DAF9413E94CF
:102D2000854763D2E70293773B0091EF9307400614
:102D3000B367FB0281EB9307CB7613070019B3E768
:102D4000E70291E305040967130707719567C0CC93
:102D50005A97938707E263EDE72A9307600463DFDE
:102D60006711130760041306400693050019937654
:102D700037009307D01691EEB366C7029307E016AB
:102D800089EA9307C776B3E7B70293B7170093872B
:102D9000D71605073E94E31CEBFCD567938707180D
:102DA0003307F402B317F402BA9933B7E9004E8936
:102DB000D297330AF7004D2555259387818803ACB8
:102DC0000700D28A63020C0AC84803AD0402130547
:102DD000C576EA8C6353A001854C83A74B006392B0
:102DE000A71083A68B0403A88B0203A6CB0403A51C
:102DF0000B059357F841B388064133B71601B30763
:102E0000F640998F1353F5416343FA0263944701E7
:102E100063EF19013387A640B3B5E600B3066640F9
:102E20008D8E6343DA0C6394460163EFE90A83A64F
:102E30000B0203A74B023386A640B3B6C600330786
:102E40006740158F83A60B00D5C2634CEA0063145C
:102E5000470163E8C9006341FA0A6394470163EDDF
:102E60001909014C635D0D0883A58B0293D9F541C7
:102E70002E99B335B900D699AE991DA2E30FFBF098
:102E80001307500413064006930500190DA091EE98
:102E9000B366C7029307E01689EA9307C776B3E7DC
:102EA000B70293B717009387D7161D8C7D179376BB
:102EB00037009307D016E34CEBFC95E2130740066E
:102EC0003367EB029307E01619EB9307CB761307F2
:102ED0000019B3E7E70293B717009387D7161D8C45
:102EE0006DBD2929E31F05EE668C71A8E345EAF65E
:102EF00063144701E3E1C9F6054C63490D08B3CCFF
:102F00008C0185476391FC083309054163040C007B
:102F10003309A8409C40935AF941569ACA974E9952
:102F20009CC0B33939012685B38A490183A9C400FD
:102F3000EFF07FBCDC44B3873741B1C70547634B33
:102F4000F7087D5763D3E700E687D84C3E94BA97DD
:102F500063D407081307FBFF937637009307C01667
:102F600095E2930740063367F7029307D01619EBF3
:102F70009307BB76130B0019B3E7670393B71700EA
:102F80009387C716DCCC8547E310FCEE83A50B05C1
:102F9000054C93D9F5412E99B335B900D699AE9920
:102FA0006D2911049D473364F40223A08403634F09
:102FB000040480CCB25022544A85CE8592540259E2
:102FC000F249624AD24A424BB24B224C924C024DD9
:102FD00045618280FD5795BF93763B001307D0165D
:102FE00095E293064006B366DB021307E01699EA02
:102FF0001307CB76130B00193367670313371700DA
:103000001307D716E3C0E7F8998FADBF1D0455B776
:103010007D59FD5945B7DDC183A7C5FF411122C4C4
:1030200006C626C21384C5FF63D307003E94AA8454
:10303000EF0010759387C1879C4381EF2322040022
:1030400023AE81862244B2402685924441016F001E
:103050005073637EF40014403307D4006396E70096
:103060009843DC43369718C05CC0D9BFBA87D843B1
:1030700019C3E37DE4FE94433386D700631F8600C3
:103080001040B29694C33386D700E31DC7FA1043AD
:103090005843B29694C3D8C375B76375C400B1479B
:1030A0009CC04DB71040B306C4006316D70014434C
:1030B0005843B29614C058C0C0C369B7828001118A
:1030C00026CA93843500F19806CE22CC4AC84EC653
:1030D000A104B14763F3F404B14463E2B4042A8960
:1030E000EF00106A9387C18798433A8439E0938749
:1030F00001889C4391E781454A857D2A23A0A188C8
:10310000A6854A85552AFD5963193507B1472320FD
:10311000F9004A85EF00F06629A0E3D004FCB1472E
:103120001CC10145F2406244D2444249B2490561A2
:1031300082801C40858F63CF0702AD4663F6F600A0
:103140001CC03E9404C031A05C406313870223AED0
:10315000F1864A85EF00F0621305B400930744003E
:1031600061993307F5405DDF3A94898F1CC05DBFDC
:103170005CC3C5B72287404095BF130435007198E2
:10318000E30285FCB305A4404A853D22E31C35FBE0
:10319000B5BF39713EDA2ED232D436D63AD842DCB7
:1031A00046DE9387818122CC804326CA06CEAA843C
:1031B00011C41C4C81E72285EF00702B0C44541085
:1031C0002686228536C6EF106017F2406244D2444C
:1031D00021618280011126CA4AC806CE22CC4EC681
:1031E00052C4AA842E8909C51C4D99E3EF003028EA
:1031F0009C4C804481E72685EF00702797370000BC
:103200009387C7F9631BF402C0405E24A18BB1C74A
:103210001C48A1C7FD59294A1C4483450900FD17D4
:10322000B1E91CC463DD07062286A9452685392538
:10323000FD576308F502294535A0973700009387AD
:10324000E7F76314F4008044C9B797370000938709
:10325000E7F2E31CF4FAC0444DBFA2852685692D30
:1032600055D97D55F2406244D2444249B249224A7E
:10327000056182801CC4050963D70700184C63CA26
:10328000E700638845011C401387170018C08CA312
:1032900061B7228626855D23E31035F9D9B71C4036
:1032A0001387170018C0294798A371B793878181A6
:1032B000AA8588436FF01FF2411122C42A842E850B
:1032C00097F7FF1F23A2078C06C6EFD01FE9FD5713
:1032D0006319F50097F7FF1F9387078B9C4391C3F2
:1032E0001CC0B240224441018280AA87850703C7DF
:1032F000F7FF6DFF3385A7407D158280011122CC39
:1033000006CE26CA4AC84EC652C456C22A84EF0008
:10331000D0379307107B63DF87121306E48493078B
:10332000D0163306F6029307F48489871307C0F991
:103330009308001913034006556E40C1930685009B
:10334000930F85053E9693073489B3C7E70293022E
:10335000A00413773400930340049734000093844F
:10336000E4E71D4F130E0E183E969307F49BB3C768
:103370001703B36814033E963363640293BE1800C8
:10338000130400039C22CC4663975706B307B6008C
:1033900019E36315030001486396080013A8C503E9
:1033A00013481800C297FD178C4A93868602B3878C
:1033B000C703AE9783A586FFAE9723A8F6FEFD87C9
:1033C00023AAF6FEE390DFFC744558518547634914
:1033D000D7006396E600344518516363D7008147F0
:1033E0001CC10545F2406244D2444249B249224AD6
:1033F000924A0561828063957700B307B6006DB786
:10340000F68701E763030300854783AA46003389F3
:1034100087028149B2878509139829004A9826981E
:10342000032AC8FF63C45903138847003368E803BD
:1034300033880541635308001D088C46FD15B3858C
:10344000E503C29563D64501AE97B9BFD297E1B700
:10345000E515CDBF014579B7828082809387818150
:10346000884309A05D7186C6A6C2CAC04EDEA2C44A
:10347000AA8952DC56DA5AD85ED6EF001021AA8407
:1034800097350000938545CA4E85EF00101F1389BC
:10349000418815ED0325090023A6018823A401888E
:1034A00097370000938787C823AEF18023A0F1826D
:1034B000EFF0AFD823A20188B640264496440649CF
:1034C000F259625AD25A425BB25B616182808325B3
:1034D00009002A846397050E03250900EFF0EFD554
:1034E0002285EFF09FE0930515004E85EFF03FBD7C
:1034F00023A2A18861ED18209307A0036313F700AE
:103500000504340817E6FF1F1306466797350000C9
:10351000938505C22285EF102046E35FA0F8E247BD
:103520001307D0023E941C206396E70A05047D59D8
:103530009308810113080101C6871307E100C686BD
:103540007000973500009385A5BF228523170100E1
:1035500023180100EF104042E350A0F63C87130708
:10356000C0038566B387E702B880938606E1973586
:1035700000009385E5BBBA9738863307D702340835
:10358000BA97B387270317E9FF1F1309695E4A86B5
:103590009CD497E7FF1F9387675E23AEF180E247D5
:1035A0003E942285EF10403D634DA0029387C18178
:1035B0009C4323A0F1829C5423A6F18823A4018874
:1035C000E5BDEFC07FD0E31905F0FDB5A285EF1092
:1035D000C04A15B71307B0020549E39BE7F4050499
:1035E00081BF23A02183E2471307D0023E941C2011
:1035F0006397E71405047D599308810113080101BD
:10360000C6871307E100C6867000973500009385D2
:1036100025B322852316010023170100231801007A
:1036200002CCEF1060356343A0129C547D771307E2
:10363000071FBA97BCC8E247C16A056A3E9413895E
:1036400084008149FD1A130A0AE118209307C00279
:103650006313F7000504034B04009307D004631AB7
:10366000FB1093088101C687130861015808C686BC
:1036700013062101973500009385C5AD2285EF1013
:10368000A02F8D47E31AF5E2B4812D479387F6FF0B
:10369000C207C183E362F7E2B88211469307F7FFDE
:1036A000C207C183E36AF6E0BC831946E366F6E02D
:1036B000230069012322D9002324E9002326F900ED
:1036C000624B229B89477C86231701002318010047
:1036D00002CC03470B009307F0026312F702930832
:1036E000810113080101C6871307E100C686700037
:1036F00097350000938545A75A85EF10E0273C8752
:103700001307C00313098902B387E702B880BA9789
:10371000388633074703BA972324F9FE62445A9444
:1037200063870904C840EFF07FBD985423A6E18861
:10373000BC48998FB337F00023A4F188B5BB1307B9
:10374000B0020549E39AE7EA05047DB53C87130713
:10375000C0038566B387E702B880938606E1BA970F
:1037600038863307D702BA97B3872703E1B585496F
:10377000E9BD9307A004930B40046315FB00050407
:10378000930BA00429466C082285EF10C046724BAB
:10379000E88363178B029307D004639A09009CA403
:1037A0008D47DCC489479CC823AA040021BF238815
:1037B000F402AD47DCD885479CDC23AE040219B780
:1037C00033755501230079012326A900E5BD197140
:1037D000A2DC86DEA6DA3284635B06009307B008BB
:1037E0001CC17D55F6506654D654096182803686D8
:1037F000930680202EC42ECCF482814519C09305F7
:10380000F4FFFD572EC82ECEBA862C00FC83AA8466
:10381000EF009005FD576355F5009307B0089CC075
:1038200071D0A2472380070075BF938781813687B7
:10383000B2862E86AA8588436FF07FF9011122CCCB
:1038400026CA4AC806CE4EC6AA842E89328401C52D
:103850001C4D91E32929973700009387279463171C
:10386000F406C0401C4C1CC45E24A18BC1C31C4880
:10387000B5CF1C4808409379F90F1379F90F1D8DC6
:103880005C486346F500A2852685D92425E51C44BD
:103890000505FD171CC41C401387170018C02380A2
:1038A00037015C486388A7005E24858B81CBA947DC
:1038B0006316F900A2852685612C0DEDF240624465
:1038C0004A85D2444249B249056182809737000057
:1038D0009387C78E6314F400804469B7973700005C
:1038E0009387C789E310F4F8C044ADBFA28526854D
:1038F000212041D17D59D9B741119387818126C2B9
:10390000844322C44AC006C62A892E8489C49C4C9A
:1039100099E32685A92E9737000093872788631B94
:10392000F402C0400317C40093170701C18393F644
:103930008700B5EA93F6070195EEA5472320F90025
:10394000136707045AA47D55B240224492440249A9
:103950004101828097370000938747866314F40003
:103960008044C9B79737000093874781E31CF4FA76
:10397000C0444DBF918B85C74C5891C993074404EF
:103980006385F5004A85EFF00FE9232A04025E24DF
:103990002322040093F7B7FD5EA41C481CC05E24DC
:1039A00093E787005EA41C4899EB5E241307002070
:1039B00093F707286385E700A2854A85052B5E24D7
:1039C00013F717001DC35C4823240400B307F0401D
:1039D0001CCC1C480145ADFB8317C40013F7070836
:1039E00025D793E707045EA4B9BF898B014791E30C
:1039F000584818C4F9BF41113347B502B367B5023F
:103A0000634A050063D4070005078D8F3A85BE859C
:103A100041018280E35CF0FE7D17AE97C5BFDE25D5
:103A2000011122CC26CA06CE4AC84EC613F787001B
:103A3000AA842E8461EFD841634DE000B841634A07
:103A4000E0000145F2406244D2444249B249056176
:103A5000828058547DD703A904009396370123A090
:103A6000040063DC060670485E24918B99C75C40B5
:103A70001D8E5C5899C33C401D8E5C540C50814691
:103A800026858297FD575A24631DF5009440F5471B
:103A900063E9D706B70740208507B3D7D700858BE2
:103AA000ADC31C48232204001CC09317370163D800
:103AB0000700FD576314F5009C4091E368C84C581B
:103AC00023A02401BDDD930744046385F50026850A
:103AD000EFF06FD4232A0402ADB70C50014685469F
:103AE00026850297FD572A86E310F5F89C40ADDF46
:103AF00075476385E70059476393E70423A02401D2
:103B000089B7136707045AA47D552DBF83A9050102
:103B1000E38909F203A905008D8B23A03501330940
:103B20003941014791E3D84918C4E35C20F11C54A2
:103B30000C50CA864E86268582976347A0005E2475
:103B400093E707045EA4C9B7AA993309A940F1BF56
:103B50009C49A5C3011122CC06CE2A8411C51C4D57
:103B600081E72EC62922B245972700009387076375
:103B7000639CF5004C408397C5009DC72285624435
:103B8000F24005616FF0BFE9972700009387076354
:103B90006394F5000C44C5B7972700009387075E30
:103BA000E39BF5FC4C44C1BFF24062440145056112
:103BB000828001458280411122C406C62A844EA516
:103BC00072A52320050023220500232405002322BB
:103BD000050623280500232A0500232C050021467D
:103BE00081451305C505EFC0AFE397170000938724
:103BF00007DE5CD097170000938787E01CD49717E7
:103C00000000938767E45CD4971700009387C7E6AA
:103C100000D01CD8B24022444101828097050000A8
:103C2000938545F399AA411126C213068006938411
:103C3000F5FFB384C4024AC02E8922C406C6938508
:103C40004407EFF0CFC72A8401CD232005002322AB
:103C50002501310508C4138684068145EFC04FDC79
:103C60002285B240224492440249410182801C4D87
:103C7000A5E7411106C622C497070000938747FABB
:103C80001CD5938701849C43232405042326050423
:103C9000232805046314F50085471CCD2A843528A4
:103CA00048C022851D2808C42285052848C44840EC
:103CB00001469145EFF03FF008440546A545EFF079
:103CC0009FEF48440946C945EFF0FFEE85471CCCFD
:103CD000B240224441018280828041119387018455
:103CE00026C284434AC006C69C4C22C42A8981E766
:103CF0002685EFF0DFF7938484048044DC40FD17D1
:103D000063D607009C40B9CF8440C5BF0317C400E9
:103D100039E7C177850723220406232004002322E4
:103D20000400232404005CC423280400232A040084
:103D3000232C0400214681451305C405EFC04FCE56
:103D4000232A0402232C040223240404232604042B
:103D50002285B240224492440249410182801304E8
:103D6000840671BF91454A85EFF0FFEB88C049FD9D
:103D7000B1472320F9000144E1BF797122D44AD030
:103D800052CC56CA5AC85EC606D626D24ECE2A8A0B
:103D9000AE8A130485040149054BFD5B09ECB25062
:103DA00022544A8592540259F249624AD24A424BFD
:103DB000B24B45618280044483294400FD1963D4D9
:103DC00009000040E1BFDE24637BFB008397E40031
:103DD00063877701A6855285829A3369A900938407
:103DE0008406E9BF797122D452CC56CA5AC806D685
:103DF00026D24AD04ECE5EC6AA8A2E8A328BEF00D9
:103E0000F06793874182804315E45685EF00306761
:103E10000145B250225492540259F249624AD24AA0
:103E2000424BB24B4561828005061C22B1C3E39D23
:103E3000E7FEE1BFBE8952861307D003FDB7110428
:103E4000084061D54A86D285EF0030446DF90440C0
:103E5000CA949C20E39577FF83A7090056851D8CA3
:103E6000098423208B00EF0090611385140055B75F
:103E700033094641930BD003E1B70111700006CE20
:103E8000EFF05FF6F2400561828017C5FF1F130552
:103E9000E52582801971A6DAAE848395E500A2DC5F
:103EA00086DE328463DB0500DE2423A0060093F760
:103EB000070885E7930700401DA0300836C6EF00CD
:103EC000305CB246E34205FE7247BD67F98F7977F1
:103ED000BA9793B717009CC2F1BF930700041CC0A8
:103EE000F6506654D654014509618280DE250111E1
:103EF00022CC06CE26CA4AC8898B2E8489CF930746
:103F000074041CC01CC885475CC8F2406244D2449B
:103F100042490561828074003000AA84EFF09FF767
:103F2000A2452A892685EFF08F9919E98317C400E5
:103F300013F7072079FBF19B93E727005EA4C1B735
:103F4000970700009387C7CD9CD45E2408C008C89B
:103F500093E707085EA4A2475CC8B24781CF8315E8
:103F6000E4002685EF00105511C55E24F19B93E710
:103F700017005EA45E243369F9002316240171B78B
:103F80008280828001114AC803A9850022CC52C4D4
:103F90005AC006CE26CA4EC656C22E84328B368AE8
:103FA00063E92609DE2513F7074851C304408C490D
:103FB0005848AA8AB389B4408D44B384E4020947BF
:103FC000B3C4E402138716004E9763F3E400BA8487
:103FD00093F70740BDCFA6855685EFF04F8E2A890F
:103FE0001DE1B14723A0FA005E247D5593E7070445
:103FF0005EA4F2406244D2444249B249224A924A03
:10400000024B056182800C484E86EFE0BFA35E2420
:1040100093F7F7B793E707085EA42328240144C861
:104020004E99B38434412320240104C4528963731C
:104030002A01528908404A86DA85EF00B0541C44B0
:104040000145B38727411CC41C403E99232024010D
:104050004DB726865685EF0050572A895DFD0C48DE
:104060005685EFE05FFBB5BFDE25717126D34AD1DF
:104070004ECF06D722D552CD56CB5AC95EC762C5A0
:1040800066C393F70708AA892E89B284B9C39C49ED
:10409000A9E39305000436C6EFF06F822320A90040
:1040A0002328A900B24615E1B14723A0F9007D55A8
:1040B000BA502A549A540A59FA496A4ADA4A4A4B77
:1040C000BA4B2A4C9A4C4D61828093070004232AF4
:1040D000F90093070002A30CF1029307000302DA30
:1040E000230DF10236CE930B5002972A0000938ADB
:1040F000EA14054C294B26841C2099C3639977093F
:10410000B30C9440638E0C00E6862686CA854E85E5
:10411000EFF05FE7FD57630BF518D256E69636DAF7
:104120001C2063850718FD579304140002D002D6A3
:104130003ED202D4A301010682DC8C2015465685AE
:10414000EF00D04213841400825721E513F70701D2
:1041500009C713070002A301E10613F7870009C787
:104160001307B002A301E10694201307A002638A9B
:10417000E602B2572684814625461820930514008E
:10418000130707FD6372E6068DC63ED61DA0050423
:10419000A5B7330555413315AC00C98F3ED0A28475
:1041A00069BF724793064700184336CE634707023C
:1041B0003AD618209307E002631DF70418309307DE
:1041C000A002631BF702F2470904138747009C43D0
:1041D0003ACE63C107023ED22DA83307E04093E7F1
:1041E00027003AD63ED0F1B7B387670385462E84C1
:1041F000BA9761B7FD57C5B7050402D2814681471A
:104200002546182093051400130707FD6376E6067C
:10421000F9F20C200D46172500001305A502EF004A
:10422000F03411CD972700009387C7011D8D9307A8
:104230000004B397A700025505045D8D2AD00C2019
:104240001946172500001305250093041400230CBC
:10425000B102EF00B03125C597C7FFFF938787DA1A
:1042600095E70257F2471377071009CF91073ECE23
:10427000D257D2973EDA41B5B387670385462E847D
:10428000BA9741B79D07E19BA107D5B77808970674
:104290000000938666CF4A860C104E85970000007A
:1042A000E7000000FD572A8AE314F5FC8357C90094
:1042B0007D5593F70704E39D07DE5255D5BB78087B
:1042C00097060000938646CC4A860C104E85212125
:1042D000D1BF1C46FD171CC663DA0700184E63C524
:1042E000E700A9476394F5006FF04FD51C422E8577
:1042F0001387170018C28CA38280011122CC26CA12
:104300004AC84EC652C406CE2A89AE893284B30446
:10431000D6007D5A63149400014509A80C204E86EE
:104320004A85EFF01FFB0504E31645FFF2406244A7
:10433000D2444249B249224A05618280357122CD78
:1043400026CB4AC94EC706CF52C556C35AC1DEDE78
:10435000E2DCE6DAAA89AE843289368409C51C4DCE
:1043600099E3EFF0DF9097270000938727E36399A5
:10437000F40C83A44900DE24A18BEDC79C48FDC347
:1043800093070002A304F1029307000302D223055E
:10439000F10222C6930B5002972A0000938A0AEA80
:1043A000054C294B4A841C2099C36390770FB30CAA
:1043B0002441638E0C00E6864A86A6854E85EFF082
:1043C000DFF3FD576302F51E9256E69636D21C20A7
:1043D000638C071CFD571309140002C802CE3ECAA5
:1043E00002CCA309010482D48345090015465685F1
:1043F000EF00D01713041900C24751E913F7070162
:1044000009C713070002A309E10413F7870009C7CE
:104410001307B002A309E104834609001307A002B1
:10442000638FE606F2474A848146254618209305A5
:104430001400130707FD6377E60AB5CA3ECE85A8C8
:1044400097270000938787D76395F40083A489009A
:104450001DB797270000938767D2E39EF4F083A4EB
:10446000C90011BFA6854E85EFF00FC911D97D5542
:10447000FA406A44DA444A49BA492A4A9A4A0A4BF3
:10448000F65B665CD65C0D618280050429BF33054E
:1044900055413315AC00C98F3EC82289B1B73247A8
:1044A00093064700184336C6634707023ACE1820E2
:1044B0009307E002631DF70418309307A002631B03
:1044C000F702B2470904138747009C433AC663C109
:1044D00007023ECA2DA83307E04093E727003ACEF3
:1044E0003EC8F1B7B387670385462E84BA973DBFB0
:1044F000FD57C5B7050402CA8146814725461820E5
:1045000093051400130707FD6376E606F9F20C2005
:104510000D46172500001305E5D2EF00300511CD3B
:1045200097270000938707D21D8D93070004B39748
:10453000A700424505045D8D2AC80C2019461725A1
:104540000000130565D0130914002304B102EF0025
:10455000F00135C197C7FFFF9387C7AA95E7424788
:10456000B2471377071009CF91073EC69257D297EB
:104570003ED20DBDB387670385462E84BA9741B7F7
:104580009D07E19BA107D5B77800970600009386A9
:1045900006D726860C084E8597000000E70000002D
:1045A000FD572A8AE314F5FCDE2493F70704E39011
:1045B00007EC125575BD780097060000938626D447
:1045C00026860C084E85012AE1BF797156CA9C499E
:1045D000BA8A984522D426D24ECE52CC06D64AD09C
:1045E0005AC85EC6AA892E84B284368A63D3E7008D
:1045F000BA879CC00347340419C385079CC01C407C
:1046000093F7070281C79C4089079CC003290400D7
:1046100013796900631A0900130B9401FD5B5C4474
:104620009840998F634CF9041C408346340493F7F7
:104630000702B336D000A5EB13063404D2854E85AD
:10464000829AFD576303F5041C4011469840998BEC
:10465000544481446397C700B384E64063D30400A5
:1046600081441C4418486354F700998FBE94014953
:1046700069047D5B63982405014509A885465A862F
:10468000D2854E85829A631E75017D55B2502254A3
:1046900092540259F249624AD24A424BB24B4561A6
:1046A00082800509ADBF3307D40013060003A301C0
:1046B000C7040347540493871600A2978906A38171
:1046C000E7049DBF85462286D2854E85829AE30EF9
:1046D00065FB050945B7797122D426D24AD04ECE62
:1046E00006D652CC56CA5AC8B689942D930790065E
:1046F0003289AA842E8413863504638DF60263E220
:10470000D706930780056386F61863EDD700638E9E
:10471000062093073004638EF60A930A24042301CB
:10472000D404C9A0930730066385F60A93074006B0
:10473000E395F6FE1C40084393F6070893054500F1
:10474000C5C61C410CC363D807001307D002B307CA
:10475000F040A301E40497260000938666AF294742
:1047600065A8930700076382F61663E5D7029307EF
:10477000E0066389F6189307F006E390F6FA0C401A
:104780001C4313F80508138547006307080608C390
:104790009C4385A893075007E383F6FE93078007A1
:1047A0006389F61293073007E399F6F61C43D0416C
:1047B00081459386470014C383AA070056857D234D
:1047C00001C53305554148C05C401CC8A301040421
:1047D00061A81C43930A2404938647009C4314C396
:1047E0002301F4048547D5B793F607041C410CC395
:1047F000B9DAC207C18781BF93F5050408C3C9D9D7
:104800009E231307F0066387E60E97260000938623
:1048100026A42947A30104044C400CC463C5050029
:1048200008406D9908C099E3B28A89CDB28AB3F580
:10483000E702FD1AB6958C212380BA00B3D5E702B2
:1048400063F0E70CA147631EF7001C40858B91CBFA
:1048500058401C4863C7E70093070003A38FFAFE84
:10486000FD1A3306564110C84E87CA867000A285CD
:104870002685EFF09FD57D5A631D450B7D55B250BF
:10488000225492540259F249624AD24A424B45613B
:104890008280A382D504972600009386669B0C40F5
:1048A000084313F805081C411105630D080208C3ED
:1048B00013F7150001C793E505020CC04147B9FB8A
:1048C0000C4093F5F5FD0CC0B1B79C4193E707028E
:1048D0009CC193078007A302F404972600009386E7
:1048E000669875BF13F8050408C3E30308FCC20704
:1048F000C1837DBF9726000093868695214719BF07
:10490000AE8735B794411C43CC4913F8060813858C
:1049100047006306080008C39C438CC339A008C342
:1049200093F606049C43F5DA8EA323280400B28A8A
:1049300025BF14485686CA8526858299E30045F529
:104940001C40898B8DE7B2474844E35AF5F23E8517
:104950003DB785465686CA8526858299E30065F36C
:10496000050A5C443247998FE345FAFEE9BF014AE4
:10497000930A94017D5BF5B771713ED39307402094
:1049800006C72EC632CD36CF3AD142D546D72312EE
:10499000F1022ACC2AD4EFE05F95970700009387B5
:1049A000E7053EDEFD57B2452313F102938781816F
:1049B0002ACE2AD6884334092E862C0882C682D075
:1049C00036CA352BBA404D618280411122C42E84F3
:1049D0008395E50006C6EF005040634905007C481A
:1049E000AA977CC8B2402244410182805E247D7730
:1049F0007D17F98F5EA4FDB701458280DE25011188
:104A000022CC26CA4AC84EC606CE93F70710AA84FF
:104A10002E843289B68991C78395E500894601467F
:104A2000D5245E247D777D17F98F5EA48315E4007D
:104A30006244F240CE864A86B24942492685D24433
:104A40000561C9AA411122C42E848395E50006C6DA
:104A5000552CFD575A24631AF500FD77FD17F98F81
:104A60005EA4B2402244410182808567D98F5EA452
:104A700068C8C5BF8395E500C9AAAA87982185079C
:104A80008505A38FE7FE7DFB828015C27D16014759
:104A9000B307E500B386E5009C2394226396D70014
:104AA0006304C7000507EDF73385D74082800145D1
:104AB000828079714AD04ECE06D622D426D2AA89D7
:104AC0002E899304190003C4F4FF3A8536C632C414
:104AD0002EC23AC0092C22951C3102479245A18B67
:104AE0002246B246A5EF9307D002631BF4069C2032
:104AF000054393042900F9CE41476390E60213076A
:104B00000003639CE7009C201307800593F7F70DD3
:104B1000639DE70A9C30C14689047D57335ED70206
:104B200001480145254FE54EB378D702138707FDAD
:104B30006363EF04BA8763D0D706634C08047D58DB
:104B4000636AAE006314AE0063C6F800054833859F
:104B5000A6023E95850483C7F4FFC9BF268995B791
:104B60009307B0026305F400A287014369B79C2054
:104B700093042900DDBF1387F7FB63E5EE009387FD
:104B800097FC55BF1387F7F963E7EE00938797FA11
:104B90005DB77D58C1B7635F08009307200223A06B
:104BA000F9007D5519EEB250225492540259F2493F
:104BB00045618280630403003305A0406DD6630421
:104BC00008009385F4FF0CC2F9BF93070003B1F608
:104BD000A146A1B713070003E387E7F2A94635BF53
:104BE000938781819C43985309E717B7FF1F1307E9
:104BF00067556FF01FEC938781819C43B286985371
:104C000009E717B7FF1F1307E7532E86AA853E85CE
:104C10006FF03FEA411122C42A842E85B285368680
:104C200097D7FF1F23A207F606C6EFC06FCFFD5729
:104C30006319F50097D7FF1F938707F59C4391C32E
:104C40001CC0B240224441018280411122C42A8406
:104C50002E8597D7FF1F23A907F206C6EF10203D28
:104C6000FD576319F50097D7FF1F9387E7F19C4322
:104C700091C31CC0B2402244410182808280828064
:104C8000411122C42A842E85B28597D7FF1F23ADF8
:104C900007EE06C6EF10A03AFD576319F50097D747
:104CA000FF1F938767EE9C4391C31CC0B240224410
:104CB00041018280411122C42A842E8597D7FF1F8B
:104CC00023A407EC06C6EF108038FD576319F500E2
:104CD00097D7FF1F938747EB9C4391C31CC0B240FB
:104CE0002244410182800325C50E82809387818101
:104CF0009C439C5389E797B7FF1F9387A74403A55D
:104D0000C70E8280411122C42A842E85B285368640
:104D100097D7FF1F23AA07E606C6EF104034FD57BA
:104D20006319F50097D7FF1F938707E69C4391C34C
:104D30001CC0B24022444101828091ED41116C00BF
:104D4000014501CA795591C61C229CC10822333500
:104D5000A00041018280014509CA795599C61C22EB
:104D60009CC108223335A0008280828093F5F50F24
:104D70002A966314C500014582801C21E38EB7FE8C
:104D80000505C5BF63F1A504B386C500637DD502E3
:104D90009345F6FF8147FD176393F50082803387C3
:104DA000F600034807003387C7002A97230007014E
:104DB000DDB73387F50014233307F500850714A307
:104DC000E319F6FE82808147E5BF81E5B2856FE099
:104DD0000FAF011122CC06CE26CA4AC84EC6328475
:104DE00001EEEFE04FA30149F24062444A85D2440C
:104DF0004249B24905618280AE84AA89EF00B02899
:104E00002689E37385FEA2854E85EFE04FAB2A89A4
:104E100061DDA6852286EFD0FFC2A6854E85EFE034
:104E20008F9FD9B7411106C622C426C24AC0FD577A
:104E3000639AF500FD54B24022442685024992440B
:104E4000410182805E2613F9F50F93F4F50F93F775
:104E5000F7FD5EA65C5A584285C71C5E3284635CCF
:104E6000F7001C401387F7FF18C0A38F27FF5C4093
:104E700085075CC0C9B7B285EF00B0167DD15DBFB4
:104E8000144A1C4281CE63FBF60083C6F7FF63978A
:104E90009600FD1705071CC258C271BF5CDE930760
:104EA00046045CDA8D471CDE930766041CC2854706
:104EB00038C2230326055CC2BDBF411122C42E8423
:104EC000CC5906C69DC1930744046384F500EFE006
:104ED0008F943C40232A04025CC081CB5C5C01457A
:104EE0001CC0B2402244410182801C48232204009D
:104EF0007D551CC05E2493E707025EA4DDB7130155
:104F000001D297070000938727F22326312D232C07
:104F1000F1289309C10197070000938747FA232CD2
:104F2000812C232A912C2328212D2324412D232237
:104F3000512D2320612D232E712B232C812B232EE9
:104F4000112C232A912B2328A12B2326B12BAA84B1
:104F50002E84232401122326011223283113232E09
:104F6000F12836CC130A5002130BA002A54B294995
:104F7000971A0000938A0A2D17BCFFFF130C8C08A8
:104F80001C2232C6638B0730EFF05FD63246834D6A
:104F90000600930C16006E951C31A18BA1C35C40DA
:104FA0006357F002EFF09FD41C4098233A951831D4
:104FB000218B19E36686E9B70327C11285071CC058
:104FC00005072326E11258407D1758C0C9BF832723
:104FD000C129A2852685829771D5E9BF63974D17B0
:104FE00023220112232E01101C3263976701C1474F
:104FF000232EF110930C260083C50C00668D850CC2
:10500000938705FD63F0FB060D465685EFF01FD62E
:1050100001CD330555418547B397A7000325C1113D
:10502000668D5D8D232EA11083470D00130770063A
:10503000930C1D006366F7081307500663FBE71A1D
:1050400013077004636AF7021307500463F3E71A47
:1050500063880712638B470F8D47232AF1122320A1
:10506000211361A083274112B307F902938707FD3B
:10507000AE972322F11249B71307B0056380E712F8
:105080006365F70213078005E398E7FC0327C11166
:1050900013670720232EE11041472320E112130755
:1050A000E006B337F7008D073DA81307300663838A
:1050B000E71013074006E391E7FA23202113C5B751
:1050C000130700076380E70C6363F7061307E00626
:1050D000638BE70E636FF70A13079006E39EE7F60C
:1050E000232001128D47232AF1125C406355F010F2
:1050F0008327C11193F7070491EBEFF03FBF1C40EA
:1051000098233A951831218B631F070E832741138B
:105110000947634FF710340822866C0A2685492216
:105120008547630CF5168947E316F5E8B9A0130720
:105130005007E384E7F813078007E389E7F41307D0
:105140003007E39BE7F0894779BF5C406351F00289
:105150001C4098236313B715850758401CC083274C
:10516000C1127D1758C085072326F112A1B58327E8
:10517000C129A2852685829761DD0325811269ED0B
:105180007D55F9A80327C11113670702232EE110EB
:10519000F5BDA1472320F1129147B1B7E6854E85B1
:1051A00085298327C111AA8C93E70704232EF110C8
:1051B000854715BF8327C111232A011293E70704EE
:1051C000232EF1101DB78327C11113F70701E31335
:1051D00007DE624793F517008326C11213064700C6
:1051E00089C532CC1C4396A3F1B332CC1C4394C383
:1051F000D1B39547CDBD8327C129A2852685829746
:10520000E30805EE9DBF0327C11205072326E1121F
:1052100058407D1758C06355E00085071CC0F1BD9C
:105220008327C129A28526858297E30805ECB1B7BB
:1052300011476348F700340822866C0A26859122BC
:10524000C5B5E3090CD6340822866C0A268597007A
:105250000000E7000000E9B55E2493F707048DF332
:105260008320C12D0324812D8324412D0329012D69
:105270008329C12C032A812C832A412C032B012C46
:10528000832BC12B032C812B832C412B032D012B32
:10529000832DC12A1301012E828003258112C9B7F3
:1052A0009C45011122CC26CA52C406CE4AC84EC61D
:1052B00056C25AC02A8A2E84B28491E7984D8547F7
:1052C00011C3FD571CC41C40C18B99E79C42138736
:1052D000470098C283A907000149854A094B084C39
:1052E0000DC5631F55079C4098235C48BA979C23C3
:1052F00089EF63170904F2406244D2444249B2493B
:10530000224A924A024B056182801C400509C18BEA
:1053100091E79C4085099C23A38FF9FE9840DC40CF
:10532000050798C01844FD17DCC07D1718C409CBC9
:10533000E347F0FA83270418A6855285829745D162
:105340001C40C18B81EB5C4485075CC41C4C99C339
:10535000238009001C4801453E992328240161BF90
:10536000631A6501EFF09F989C409C233E951C3189
:10537000A18BC1DFE31609FC084C8547E312F5FC5D
:105380009DBF5D7197170000938747F1CAC03EC269
:105390003689971700009387A7F0944D3EC497175E
:1053A0000000938727F0A2C44EDE5AD86ECE3EC6C8
:1053B00086C6A6C252DC56DA5ED662D466D26AD0FF
:1053C0008D47AA892E84B28D170B0000130B8B8199
:1053D0006396F600170B0000130B8B3F1C449306DB
:1053E000C015014A1386F7FF63F7C600138A37EA30
:1053F0009307D0151CC41C408566938606D0930481
:10540000C401D58F1CC0130C4100A68A814B930C9C
:10541000002083A70D0003250C0009468C23EFF024
:10542000FF9439CD8547639EFB0C5C4099E71C4097
:10543000214758C093E707201CC01C4093F7F7AFE3
:105440001CC01C441386F7FF10C49DCB03A60D009F
:10545000138D1A009307160023A0FD00102223804D
:10546000CA0003A64D00EA8A7D1623A2CD00634937
:10547000C00003260418EE854E85029663180510B9
:10548000850B8D47110CE396FBF85C4099E3A94727
:105490005CC05C404848971500009385E5DF9D8D12
:1054A000FD7B056C568DAD22814A930C0003938BD6
:1054B000FB6F130C0C8014441040BDCE03A50D00EF
:1054C0004C4803480500C2958C21BDC5631898055A
:1054D000B3758601A1C5850A63050A0085067D1A94
:1054E00014C483A64D00FD1623A2DD006350D00432
:1054F00083A60D00850623A0DD001444FD1614C408
:105500005DBF8947E39FFBF21C4013F60760E31978
:1055100096F7414758C093E707101DB733767601D9
:1055200010C01421050DA30FDDFE65BF83260418EE
:10553000EE854E85829671D1144093F6061085C291
:1055400063FCA4018345FDFF8326C417130AFDFFF6
:105550006E864E858296528D0545630E9D041840D9
:10556000418B39E323000D0054400146A6854E854A
:10557000029B14400327090013F6060211CA930682
:1055800047002320D900184308C321A8814A6DB7DA
:1055900093F516001306470095CD2320C900184344
:1055A0000AA35844050758C41C48B3049D40D69428
:1055B000BE9404C80145B640264496440649F259B3
:1055C000625AD25A425BB25B225C925C025DF24D3F
:1055D000616182802320C9007DB7411122C42A84E1
:1055E0002E85B285368697C7FF1F23AF075806C69C
:1055F000EF00F027FD576319F50097C7FF1F93874A
:10560000A7589C4391C31CC0B240224441018280F0
:105610009C211307E0056386E70413871500814684
:105620000146930500103308C5002300D800050685
:10563000E31BB6FE1306F7FF9DC393C6160093083F
:10564000D0021308D0053306F50014A20C2313066C
:105650001700638315036384050189E93A8632855F
:105660008280138725009C3185465DBFAE873287D7
:10567000D9BF9307D002E5BF0C33E38C05FFE3CA23
:10568000F5FE090785073306F50014A2E3CCB7FE43
:1056900075BF79714AD04ECE06D622D426D2AA89B9
:1056A0002E899304190003C4F4FF3A8536C632C428
:1056B0002EC23AC0EFF02FE322951C3102479245EB
:1056C000A18B2246B246D1E39307D0026311F408BE
:1056D0009C20054393042900E5C641476390E602F8
:1056E00013070003639CE7009C201307800593F7D2
:1056F000F70D6392E70C9C30C1468904B70800801F
:105700006314030093C8F8FF33FFD8020148014532
:10571000A54FE54EFD5233DED802138707FD63E344
:10572000EF04BA8763DED704630D58007D58636ABF
:10573000AE006314AE006346FF0005483385A60241
:105740003E95850483C7F4FFC9BF268999BF930797
:10575000B0026305F400A2870143BDBF9C209304FF
:105760002900DDBF1387F7FB63E5EE00938797FC05
:1057700055BF1387F7F963E5EE00938797FA5DB796
:10578000FD57631FF8009307200223A0F900468508
:1057900019EEB250225492540259F2494561828066
:1057A000630403003305A0406DD6630408009385AD
:1057B000F4FF0CC2F9BF93070003A9F2A1463DBF55
:1057C00013070003E382E7F2A9460DBF93878181A7
:1057D0009C43985309E717B7FF1F1307A7966FF06D
:1057E0005FEB011122CC2E84CC5906CE26CA4AC8C2
:1057F0004EC652C4930744046392F50493050040D7
:10580000EFD0FF8B11E97D55F2406244D24442490A
:10581000B249224A05618280930700401CDC83471D
:10582000640448D81305D53F3CA1834754041CB1F8
:10583000834744041CA108C00145F9B70329840328
:10584000931919004E86EFF04FD8AA844DDD330A24
:105850002501AA854A865285EFD0CF9E2320440198
:1058600044D8232C3403C9BF89CD9307F00F63F7C5
:10587000C7009307A0081CC17D55828090A10545F3
:1058800082800145828083A7C5FF1385C7FF63D54A
:105890000700AA959C413E958280014863C5050E8C
:1058A00063DB06003306C040B337C000B306D04008
:1058B0001348F8FF9D8EB6873283AA8EAE88639F09
:1058C000061663FBC50C4167636FE61CB707000152
:1058D0006363F63693568601E147171700001307F6
:1058E000E7AC36971823BA97130700021D8F19CB20
:1058F000B395E500B357F5003313E600B3E8B700FE
:10590000B31EE50013560301B3D7C8029316030173
:10591000C18213D70E01B3F5C8023385F602C20562
:10592000B3E8E50063FAA8009A981387F7FF63E4E9
:10593000680063E8A832BA87B388A840B3D5C80224
:10594000C20E93DE0E01B3F8C802B386B602C208D7
:10595000B3E8D80163FBD8009A981387F5FF63E595
:105960006800F91563E3D800BA85139507014D8DDA
:105970008145630908003305A040B337A000B30593
:10598000B0409D8D82803305A040B337A000B305A1
:10599000B0409D8D7D5829B701E605433353D302AE
:1059A00041676369E30EB7070001636AF328935602
:1059B0008301E147171700001307479F3697182305
:1059C000BA97130700021D8F65EB93180301B38686
:1059D0006540135F030193D80801854513D70E0175
:1059E000B3D7E603B3F6E60333861703C206558F33
:1059F000637AC7001A979386F7FF6364670063654D
:105A0000C726B687118FB356E703C20E93DE0E0189
:105A10003377E703B388160342073367D701637B05
:105A200017011A971386F6FF63656700F91663631B
:105A30001701B28613950701558D25BF63E1D50483
:105A4000C16763E1F604B707000163E2F61E93D86D
:105A5000860161479717000093874795C69703C350
:105A60000700930700023A93B3876740E9EB63ECC2
:105A7000B61C3335C500134515008145DDBD814594
:105A80000145C5BD9307F00F63F2D71C93D886007C
:105A90002147C9B71307F00F9A86E37D67F0935645
:105AA0008300A14701BF1307F00FB286E377C7E277
:105AB00093568600A14715B53313E30033D6F5009E
:105AC000135F0301335EE603B396E500B357F500B9
:105AD000DD8E9318030193D80801B31EE50093D51A
